:0300000002201EBD
:0C201E00787FE4F6D8FD75812202206571
:101B2800206B65795F7363616E0D0A00204B455920
:101B38005F325F505245530D0A0074696D65723A01
:101B48002564200D0A006164635F6D6178203D2083
:101B5800256420200D0A007531203D2025662020AF
:101B68000D0A0052203D20256620200D0A007465CC
:101B78006D706572203D20256420200D0A002061CB
:101B880064635F746573745F737464203D20320D01
:101B98000A000D0A000D0A3D3D3D3D3D3D3D3D3DE0
:101BA8003D3D3D3D3D3D3D3D3D3D3D3D3D3D3D3D5D
:101BB8003D3D3D3D3D3D3D3D3D0D0A00736B753A54
:101BC8004B2564200D0A00736F6674207665727366
:101BD800696F6E3A2573200D0A00312E30302E3091
:101BE8003000676170202564200D0A0074696D65F6
:101BF80072202564200D0A003D3D3D3D3D3D3D3DA3
:101C08003D3D3D3D3D3D3D3D3D3D3D3D3D3D3D3DFC
:0D1C18003D3D3D3D3D3D3D3D3D3D0D0A0046
:10157200603C00460041003C00370032002D002A4A
:10158200002700240021001E001C001A001800166B
:101592000013001200110010000F000D000C000BD0
:1015A200000A000900080007000600050004000305
:1015B200603C00830000000000000000000000000A
:1015C2000000000000000000000000000000000019
:1015D2000000000000000000000000000000000009
:1015E20000000000000000000000000000000000F9
:1015F200603C000700000000000000000000000046
:1016020000000000000000000000000000000000D8
:1016120000000000000000000000000000000000C8
:1016220000000000000000000000000000000000B8
:10163200420043000041008200410045004100BFDA
:1016420001420000000042000200004200040000CB
:04165200410006004D
:101A2600E49000C0F0900045E0700A122219900080
:101A3600C0EFF08005E49000C0F09000C0E06401C3
:101A460070477BFF7A1B792812091812266DEF70F2
:101A56000A7F01122673E4FF0225AAE4FF12267309
:101A66001220AA900140E0D394014016A3E0FF7033
:101A76000590013F8009EFD394034006900132742C
:101A860002F09000827401F02212266DEF600302CC
:101A96001B279000C0E0640270487BFF7A1B7934F4
:101AA600120918900140E0C394045005E004F08048
:101AB600069001407401F0900140E0FFD39401408C
:101AC60016A3E0FE700590013F8009EED394034013
:101AD600069001327402F09000827401F01226859D
:101AE600803C9000C0E064037037900141E0C394ED
:101AF600055005E004F08005E4900141F07BFF7A93
:101B06001B7942900141E0FF900104E4F0A3EFF05D
:101B1600120918900141E0FF12267F1220AA122412
:011B26007747
:011B2700229B
:0B0D30009000C2EBF0A3EAF0A3E9F092
:100D3B00A3120809000000009000C9120809000066
:100D4B000000E49000CDF0A3F0A3F0A37419F07DA4
:100D5B001E7C001216B89000C2E0FBA3E0FAA3E0E1
:100D6B00F990003A120687C3940AE5F094005005F7
:100D7B007E007FFF229000C2E0FBA3E0FAA3E0F924
:100D8B0090003A120687FF900104E5F0F0A3EFF014
:100D9B007BFF7A1B794E1209189000C2E0FBA3E08F
:100DAB00FAA3E0F990003A120687FDACF0E41203C7
:100DBB00427B007AF0797F78451202279000C512AA
:100DCB0007FD7BFF7A1B795F9000C5E0FCA3E0FD7C
:100DDB00A3E0FEA3E0FF9001041207FD1209189097
:100DEB0000C5E0FCA3E0FDA3E0FEA3E0FFE4FBFAFB
:100DFB007980784012011E9000C51207FD9000C546
:100E0B00E0FCA3E0FDA3E0FEA3E0FF7BF47AFD7919
:100E1B00B4783F1202279000C51207FD9000C5E081
:100E2B00F8A3E0F9A3E0FAA3E0FBE4FFFE7DF07C7E
:100E3B00421200299000C91207FD9000C5E0F8A3EB
:100E4B00E0F9A3E0FAA3E0FBA3E0FCA3E0FDA3E041
:100E5B00FEA3E0FF1202277BF67A2879DC783E129C
:100E6B00011E9000C91207FD7BFF7A1B796B900066
:100E7B00C9E0FCA3E0FDA3E0FEA3E0FF9001041298
:100E8B0007FD1209187F297EDC7DF57C429000C995
:100E9B00E0F8A3E0F9A3E0FAA3E0FB1202C45004CC
:100EAB00E4FEFF22E4FFFE7D057C439000C9E0F8E1
:100EBB00A3E0F9A3E0FAA3E0FB1202C46053405194
:100ECB00E4FFFE7D057CC39000C9E0F8A3E0F9A325
:100EDB00E0FAA3E0FB12002D9000C51207FD7B8505
:100EEB007AEB7911783F9000C5E0FCA3E0FDA3E01D
:100EFB00FEA3E0FF12022712037B9000CDEEF0A3BE
:100F0B00EFF09000D0E02FF09000CFE03EF0020F1A
:100F1B009EE4FFFE7D057C439000C9E0F8A3E0F959
:100F2B00A3E0FAA3E0FB1202C450689000C9E0F8FA
:100F3B00A3E0F9A3E0FAA3E0FBE4FFFE7D057C430D
:100F4B001200299000C51207FD7B857AEB79117889
:100F5B003F9000C5E0FCA3E0FDA3E0FEA3E0FF1281
:100F6B00022712037B9000CDEEF0A3EFF0D3941980
:100F7B00EE940040099000CDE4F0A37419F09000BA
:100F8B00CDE0FEA3E0FFC39000D0E09FF09000CF38
:100F9B00E09EF07BFF7A1B79769000CFE0FFA3E019
:100FAB00900104CFF0A3EFF01209189000CFE0FEF0
:030FBB00A3E0FFB1
:010FBE002210
:0B1C25009000C2EBF0A3EAF0A3E9F08E
:101C3000A3120809000000007F007E007D007C00E8
:101C40009000C9120809000000007D1E7C001216D9
:101C5000B89000C2E0FBA3E0FAA3E0F990003A12CA
:101C60000687FDACF0E41203427B007AF0797F78BE
:101C7000451202279000C51207FD9000C5E0FCA3A5
:101C8000E0FDA3E0FEA3E0FFE4FBFA7980784012D8
:101C9000011E9000C51207FD9000C5E0FCA3E0FD09
:101CA000A3E0FEA3E0FF7BF47AFD79B4783F120253
:101CB000279000C51207FD9000C5E0F8A3E0F9A346
:101CC000E0FAA3E0FBE4FFFE7DF07C4212002990E5
:101CD00000C5E0F8A3E0F9A3E0FAA3E0FB120227B5
:101CE000E4FBFA79FF784312011EE4FBFA797A7873
:101CF0004412022712037B9000C91207FD7B017A70
:101D00000079469000C9A3A3E0FFA3E09000D1CFE3
:101D1000F0A3EFF07D1E12115B7583008F827E00B1
:011D200022A0
:10142100E49000C0F0A3F0900044E004F070069056
:101431000043E004F09000BFE0640160030214C3C4
:1014410090000475F00112065BFEC3E5F09432EEE4
:101451009400405DD2A2E4900004F0A3F07B0190DF
:1014610000C504F0A37400F0A37402F07A007900BF
:101471001223CA900002E0FEA3E0FF900006E0FD07
:1014810025E02483F582E43400F583EEF0A3EFF048
:10149100900000E0FEA3E0FFED25E02407F582E4E3
:1014A1003400F583EEF0A3EFF0900006E004F0C203
:1014B100A2900006E0D3941E4008E4F09000BF74AF
:1014C10002F0900043E0FEA3E0FFE4FCFD7B507AD4
:1014D100C3F9F8D31207E74003021571E490004302
:1014E100F0A3F09000BFE0640270327BFF7A1B79B9
:1014F100861209187BFF7A1B799A1209187B017AE7
:10150100007983121C257B017A007907120D309036
:1015110000C0EEF0A3EFF09000BF7401F012266D51
:10152100EF6401703E900082E0B4011AE4F0D390C0
:1015310000C1E094329000C0E09400900135740144
:10154100F090013C04F0900141E0FF12267F9001F0
:1015510040E0FF1226859000C0E0FEA3E0FF1221CB
:10156100368008E4FF1225AA12265BE4900045F0BC
:011571002257
:101F78001226511224261224C3D2AF12000E1226A2
:101F88001B1219107FC87E0012250B7F02122638FB
:101F98001223FC1226647FB07E041225C212265B2F
:101FA8007BFF7A1B799D1209187BFF7A1B79C490F5
:101FB8000104741FF0A37446F01209189001047408
:101FC800FFF0A3741BF0A374E2F07BFF7A1B79CFB8
:101FD8001209187BFF7A1B79EA900140E0FF900113
:101FE80004E4F0A3EFF01209187BFF7A1B79F49050
:101FF8000141E0FF900104E4F0A3EFF01209187B1F
:10200800FF7A1C7900120918121421121A261225B7
:062018008E12268B80F2FF
:0A265100758E5190FE917401F02285
:10231B009000C4EEF0A3EFF0A3ECF0A3EDF0C39F9D
:10232B00EC9E4004E4FF802290013CE0FFC3900050
:10233B00C5E09FFF9000C4E09400FED39000C7E07F
:0E234B009F9000C6E09E50057F0A1225AA2230
:102136009000C2EEF0A3EFF0900140E0B40A005028
:102146006490214EF828287302216C02217802211E
:102156008402219C02219002219C02219C02219C46
:1021660002219C02219C9000C2E0FCA3E0FD7F1EA0
:10217600802E9000C2E0FCA3E0FD7F32802290001A
:10218600C2E0FCA3E0FD7F3C80169000C2E0FCA309
:10219600E0FD7F50800A9000C2E0FCA3E0FD7F4690
:0621A6007E0012231B2243
:10258E00900131E0B40114900140E0D39401400B6E
:0C259E007401F0122477E4900131F02267
:05115B009000D0EDF052
:10116000E49000D3F0A3F0ED24FFFEE434FFA3F0FD
:10117000A3CEF0E49000D9F09000D4E025E0FF90F9
:1011800000D3E0338F82F583120687FF9000D1E011
:10119000FCA3E0FDC39FEC95F04005A3A3E0FF2274
:1011A0009000D6E025E0FF9000D5E0338F82F583F4
:1011B000120687FFD3ED9FEC95F050037F642290D9
:1011C00000D5E0FEA3E0FF9000D3E0FCA3E0FDC368
:1011D0009FEC9E400302129FA3A3ED2FFFEC3EC3A2
:1011E00013FEEF13FFA3EEF0A3EFF0E025E0FF9076
:1011F00000D7E0338F82F583120687FF9000D1E09D
:10120000FCA3E0FD6F7003EC65F0700302129F9089
:1012100000D8E025E0FF9000D7E0338F82F58312FD
:101220000687FFC3ED9FEC95F0502A9000D8E0248C
:1012300001FF9000D7E03400FEEF25E0FFEE338F92
:1012400082F583120687FFD39000D2E09F9000D1F1
:10125000E095F0504A9000D8E025E0FF9000D7E0FC
:10126000338F82F583120687FFD39000D2E09F90E0
:1012700000D1E095F09000D7E0FFA3E0400590009A
:10128000D580039000D3CFF0A3EFF09000D0E0FF23
:101290009000D9E0FE04F0EED39F50030211BF90FE
:1012A00000D5E0FEA3E0FFD39000D4E09F9000D3F0
:0F12B000E09E40037F00229000D7A3E02446FF7A
:0112BF00220C
:0816B8009000D1ECF0A3EDF06D
:1016C000E49000D5F0A3F09000D2E024FFFF90005A
:1016D000D1E034FFFEC39000D6E09FEE6480F89026
:1016E00000D5E064809840030217EDE49000D7F045
:1016F000A3F09000D2E024FFFF9000D1E034FFFE81
:101700009000D5E0FCA3E0FDC3EF9DFFEE9CFEA39F
:10171000E0FCA3E0FDC39FEE6480F8EC6480984099
:10172000030217D9ED2401FFE43CFEEF25E0FFEEB4
:10173000338F82F583120687FDACF09000D8E02548
:10174000E0FF9000D7E0338F82F583120687D39DA8
:10175000E5F09C40709000D7E0FCA3E0FD25E0FFA1
:10176000EC338F82F583120687FF9000D3E5F0F00B
:10177000A3EFF0ED2401FFE43CFEEF25E0FFEE33A4
:101780008F82F583120687FD9000D8E025E0FF9058
:1017900000D7E0338F82F583E5F08DF01206DE90FE
:1017A00000D3E0FCA3E0FD9000D8E02401FF90000E
:1017B000D7E03400FEEF25E0FFEE338F82F583ECB7
:1017C0008DF01206DE9000D8E004F060030216F2FD
:1017D0009000D7E004F00216F29000D6E004F0602A
:0D17E000030216C79000D5E004F00216C702
:0117ED0022D9
:0E262A00EF1F70011E144E6004000080F322AA
:1025C2007D407C03ED1D70011C144C70F7EF1F70F1
:0625D200011E144E70EA28
:0125D80022E0
:1024C30090FF037401F090FF02F090FF07F090FF7C
:1024D3001274C1F075B4817F507E0012262A90FEDB
:0524E3009B7441F02292
:1025D900E4FFFE75B50243B440E5B430E5FB53B4FE
:0525E900DFAEB7AFB644
:0125EE0022CA
:1025EF00E4FFFE75B50743B440E5B430E5FB53B4E3
:0525FF00DFAEB7AFB62E
:0126040022B3
:10260500E4FFFE75B50343B440E5B430E5FB53B4D0
:05261500DFAEB7AFB617
:01261A00229D
:1023CA007F007E007D007C001225EFE4EE8FF01284
:1023DA0006BF7F147E0012262AE4FFFEFDFC1226A9
:1023EA00059000C5E0FBA3E0FAA3E0F9EE8FF00246
:0223FA0006BF1C
:101D21000D0A3D3D3D3D3D3D3D3D3D3D3D3D3D3D45
:101D31003D3D3D3D3D3D3D3D3D3D3D3D3D3D3D3DD2
:101D41003D3D3D3D3D3D3D3D3D3D0D0A00706F77C3
:101D51006572206F6E20666C617368206761703AEE
:101D61002564202074696D65723A2564200D0A008E
:101D71003D3D3D3D3D3D3D3D3D3D3D3D3D3D3D3D92
:101D81003D3D3D3D3D3D3D3D3D3D3D3D3D3D3D3D82
:101D91003D3D3D3D3D3D3D3D0D0A003D3D3D3D3D12
:101DA1003D3D3D3D3D3D3D3D666972737420696E2B
:101DB100697420646174613D3D3D3D3D3D3D3D3D66
:101DC1003D3D200D0A0030782530345820203078F0
:101DD1002530345820203078253034582020307870
:101DE10025303458200D0A00666C617368206761E4
:101DF100703A2564202074696D65723A2564200D5E
:021E01000A00D5
:0B165600440142202005014101460133
:06266D00900146E0FF228F
:06267300900146EFF02289
:10252E00D310AF01C3C0D075FDF075FC0F8EFA8FBE
:10253E00F975FDD275FC2D75FDE175FC1ED0D0929E
:02254E00AF22BA
:10244F00D310AF01C3C0D08FFB75FDF075FC0FAE7D
:10245F0004AF058EFA8FF975FDB475FC4B75FDE170
:08246F0075FC1ED0D092AF22D3
:0C21AC007B017A0179407D027F047E3CBB
:1021B800D310AF01C3C0D09000C1EEF0A3EFF0A3DD
:0B21C800EDF0A3EBF0A3EAF0A3E9F0B8
:1021D300E4A3F0C2AFF09000C3E0FF9000C7E0C3F8
:1021E3009F502C9000C4E0FBA3E475F0011206712C
:1021F300A9F0FA1205AEFF9000C1E475F0011206D2
:1022030071ADF0FC12244F9000C7E004F080C7D2F8
:01221300AF1B
:05221400D0D092AF22C2
:040003008F828E83D7
:03000700E493FF80
:01000A0022D3
:1022DB009000C1EEF0A3EFF0A3EBF0A3EAF0A3E9BB
:1022EB00F0AF051DEF60289000C1E475F0011206F8
:1022FB007185F082F583E493FF9000C3E0FBA3E4C8
:10230B0075F001120671A9F0FAEF1205F480D222D2
:10239700E4FDFCED2400FFE4343CFE12000374422C
:1023A7002DF582E43401F583E0B507030C80037F44
:1023B70000220DEDB404DCECC3940440037F01223A
:0223C7007F0095
:0123C90022F1
:10191000E49000C0F090FE927404F0122397EF70F0
:10192000079000C004F080597BFF7A1D79211209CD
:10193000187B017A0179407D027F047E3C1222DB14
:101940007BFF7A1D794E900140E0FF900104E4F0A6
:10195000A3EFF0900141E0FF900106E4F0A3EFF067
:101960001209187BFF7A1D7971120918900140E065
:10197000D394095006A3E0940540069000C074017A
:10198000F09000C0E06401707A7BFF7A1D799C12B0
:1019900009189001407401F0A3F07F007E3C1225ED
:1019A0002EFB7A0179427D041221B81221AC7B0111
:1019B0007A0179427D047F007E3C1222DB7BFF7A34
:1019C0001D79C7900142E0FF900104E4F0A3EFF01D
:1019D000900143E0FF900106E4F0A3EFF090014492
:1019E000E0FF900108E4F0A3EFF0900145E0FF90E4
:1019F000010AE4F0A3EFF01209187BFF7A1D797158
:101A00001209187BFF7A1D79E9900140E0FF9001EF
:101A100004E4F0A3EFF0900141E0FF900106E4F050
:061A2000A3EFF00209181B
:102477007F047E3C12252E7B017A0179427D047F01
:10248700001221B81221AC7B017A0179407D027FCD
:06249700047E3C0222DB82
:06166100C112410151001D
:1024260090FF1674C1F090FF157460F090FFA074D1
:1024360026F090FFA114F075CEFF75CD9875CC06E9
:09244600759E02759810D2AC22BB
:0C264500C2AC8F993099FDC299D2AC2232
:06267900AE071226452207
:0300230002255063
:10255000C0E0C083C082E59830E00E900151E5995B
:10256000F05398EFD2125398FED082D083D0E0324D
:1024E8004C4F4E475F4B45590D0A0054454D5045DA
:1024F800525F4B45590D0A0054494D455F4B4559AC
:032508000D0A00B9
:1016670041014700420148000041014A0142014B44
:02167700000071
:0F261B0090FF177460F090FF00F090FF01F02225
:101EC100E49000C2F0A281339000C1F0900147E09C
:101ED10014602614604E147003021F64240360030F
:101EE100021F6D9000C1E06003021F72900148F073
:101EF100A3F090014704F080789000C1E0706B90EE
:101F01000149E004F07006900148E004F0C390013B
:101F110049E09403900148E09400403E90014774E9
:101F210002F080369000C1E0B40106A37404F08091
:101F31003B900149E004F07006900148E004F0C3D1
:101F4100900149E094C8900148E09400400C900051
:101F5100C27405F09001477403F07F0A7E001225D8
:101F6100C2800E9000C1E0B401078000E4900147F7
:061F7100F09000C2E0FF49
:011F77002247
:10221900121EC1BF050C7BFF7A2479E81209187FC9
:10222900012290014AE0603030A70320802A7F32E2
:102239007E001225C2E490014AF020A70C7BFF7AA8
:102249002479F31209187F02222080187BFF7A254E
:1022590079001209187F032230A7093080069001FE
:102269004A7401F0308113D390014CE0940190013C
:0C2279004BE094004004E4F0A3F07F0070
:012285002236
:0416790041015200D9
:1025AA007E00900152E0FD7C00120880E47B64FA10
:0725BA00F9F81207478FDF5B
:0125C10022F7
:10250B0090FF1D74C2F090FF9C7435F0AC06AD07C4
:10251B007E7A7F12120606EF14900152F0F5DE75EB
:03252B00DD972217
:0D26380075BD17EF75F02BA490FEA0F022E9
:04268B0043BD102219
:102286007365742074696D65207365636F6E643A57
:1022960025640D0A0065786368616E67655F686529
:1022A60061745F76616C7565200D0A0074696D65F1
:1022B600207365636F6E643A2564200D0A007072A0
:1022C6006F74656374200D0A0074696D65206F660E
:0522D60066200D0A0066
:10167D0042013A0000420138000042013D000041A4
:10168D000131004101320041013F0041013C004167
:0D169D00013500420133000042013600001B
:10257000900138EEF0A3EFF0E4A3F0A3F07BFF7A34
:0E258000227986900104EEF0A3EFF002091814
:10235900900135E06401703590013375F001120682
:102369005BFED3E5F0940EEE940140217BFF7A22C7
:10237900799B120918E4900135F0900133F0A3F02C
:0E238900900140E0D3940190013C7402F022D8
:1020AA00E490013AF0A3F0900141E0FF700890013A
:1020BA0038F0A3F08052EFB4010C9001387407F0A5
:1020CA00A304F0E48042EFB4020D900138740EF0DC
:1020DA00A37410F0E48031EFB4030D900138741C3E
:1020EA00F0A37420F0E48020EFB4040D900138745A
:1020FA0038F0A37440F0E4800FEFB405179001386C
:10210A007470F0A37480F0E490013DF0A3F09001A4
:10211A0036F0A3F07BFF7A2279B2900138E0FFA370
:0C212A00E0900104CFF0A3EFF0020918D0
:10000E00E490FE80F0F589758CF5758A9643A8020A
:04001E0043881022E1
:03000B000217EEEB
:1017EE00C0E0C0F0C083C082C0D075D000C000C0C1
:1017FE0001C002C003C004C005C006C00712266D9A
:10180E00EF60030218F290013BE004F070069001C5
:10181E003AE004F0C390013BE094F490013AE09476
:10182E000150030218F212235990013FE0B4022D29
:10183E0090013EE004F0700690013DE004F0D3907C
:10184E00013EE0942090013DE0941C401090013F39
:10185E00E4F090013DF0A3F090013104F0D390013B
:10186E0039E09400900138E094004048A3E024FF52
:10187E00F0900138E034FFF0900132E06402705DC8
:10188E0090013EE004F0700690013DE004F0D3902C
:10189E00013EE0942090013DE0941C4040900131C7
:1018AE007401F0A3E4F090013DF0A3F07BFF7A22E7
:1018BE0079C48026900141E060237F011226739047
:1018CE000138E4F0A3F090013DF0A3F0900132F066
:1018DE0090013FF07BFF7A2279CF12091890013ADE
:1018EE00E4F0A3F0121E03D007D006D005D004D02A
:1018FE0003D002D001D000D0D0D082D083D0F0D08F
:02190E00E032C5
:0D16AA0042014F000041014E0041014D0082
:1023FC0043D1E890FF62E04406F090FF61E04408AE
:10240C00F090FF60E04410F090FF6AE044F8F0C2F6
:0A241C0097C296C295C294C29322A3
:09265B0090014F74CEF0A3F022AF
:10249D0090014DE0FF700F90014F74CEF0A3F090BE
:1024AD00014D7401F022EFB4010B90014F74FFF058
:0524BD00E490014DF068
:0124C20022F7
:06267F00900150EFF02273
:0626850090014FEFF0226E
:0926640090014F74CCF0A3F022A8
:101E030090014EE0B408004003021EBB901E16F87A
:101E1300282873021E2E021E3E021E4F021E62025D
:101E23001E77021E87021E98021EAB53D1EF120FBC
:101E3300BF1212C090014E7401F022C292D29112CD
:101E43000FC31212C090014E7402F022C292C291CB
:101E5300D2A3120FC51212C090014E7403F022C216
:101E630092C291C2A3D2B4120FC71212C090014EF4
:101E73007404F02243D110120FBF1212C090014E0E
:101E83007405F022C292D291120FC31212C09001B4
:101E93004E7406F022C292C291D2A3120FC512123F
:101EA300C090014E7407F022C292C291C2A3D2B471
:0E1EB300120FC71212C08000E490014EF02200
:0512C00090014FE0FF6A
:1012C500EF14606014700302136314700302139D1E
:1012D5002437700302141624FE700302140B24CF66
:1012E50070030213D424FB600302142090014EE026
:1012F500FF6003B40404C295C294EF64016004EF77
:10130500B40504D295D294EF64026004EFB40604E8
:10131500D295D294EF64036008EF6407600302146A
:101325002002140690014EE0FF6003B40404C29548
:10133500C294EF64016004EFB40504D295C294EF42
:1013450064026004EFB40604D295C294EF640360AE
:1013550008EF64076003021420C295C2942290012D
:101365004EE0FF6003B40404D295C294EF640160BB
:1013750004EFB40504D295C294EF64026004EFB49F
:101385000604C295D294EF64036008EF6407600316
:10139500021420D295D2942290014EE0FF6003B44E
:1013A5000404D295C294EF64016004EFB40504D23D
:1013B50095C294EF64026004EFB40604D295D2940A
:1013C500EF64036005EF64077051D295C2942290D3
:1013D500014EE0FF6003B40404D295C294EF6401AA
:1013E5006004EFB40504C295D294EF64026004EF83
:1013F500B40604C295D294EF64036005EF640770E8
:101405001AC295D29422C297C296C295C294C2932B
:0C14150022D297D296D295D294D2932284
:0D0FBF00D292C291C2A3C2B4900150E0FFD3
:100FCC00EF14605D14700302106B1470030210A90F
:100FDC001470030210E314700302111D2405600346
:100FEC0002115A90014EE0FF6003B40406C297C28E
:100FFC0096C293EF64016004EFB40506D297D296C3
:10100C00D293EF64026004EFB40606C297D296C284
:10101C0093EF64036046EF6407600302115A0211F8
:10102C005490014EE0FF6003B40406D297C296C2FE
:10103C0093EF64016004EFB40506D297D296D29375
:10104C00EF64026004EFB40606C297C296C293EF37
:10105C0064036008EF6407600302115A0211549094
:10106C00014EE0FF6003B40406C297C296C293EF30
:10107C0064016004EFB40506D297D296D293EF6464
:10108C00026004EFB40606D297C296C293EF6403D3
:10109C006008EF6407600302115A02115490014E6C
:1010AC00E0FF6003B40406C297C296D293EF6401CA
:1010BC006004EFB40506D297D296D293EF64026027
:1010CC0004EFB40606C297C296C293EF64036005A0
:1010DC00EF64077079807190014EE0FF6003B404F7
:1010EC0006C297D296C293EF64016004EFB4050672
:1010FC00D297D296D293EF64026004EFB40606C284
:10110C0097C296C293EF64036005EF6407703F804B
:10111C003790014EE0FF6003B40406C297C296C23A
:10112C0093EF64016004EFB40506D297D296D29384
:10113C00EF64026004EFB40606C297C296D293EF36
:0F114C0064036004EFB40706D297D296D29322C1
:100026000203E7E86480F8E933E83360110460F01E
:10003600ED33EC337009E8FCE9FDEAFEEBFF220440
:1000460060DED3EB9FEA9EE99DE8C2E78CF0C2F73B
:1000560095F0400CE8CCF8E9CDF9EACEFAEBCFFB07
:100066001203B285D0F05804700320D5B3E80470AB
:10007600075002B2D50203F192D5EC0460F7E4CC46
:10008600C0E0C398F8603B94186008400DD0E0FBD0
:100096000203C9E4FBFAC9FC8028E830E406E4C997
:1000A600FBE4CAFCE830E305E4C9CACBFCE8540724
:1000B6006010F8C3E913F9EA13FAEB13FBEC13FC2F
:1000C600D8F130F52FC3E49CFCEF9BFFEE9AFEEDD2
:1000D60099FDD0E0FBEF4E4D4C701222DB0302037C
:1000E600EEEC2CFCEF33FFEE33FEED33FDED30E7A7
:1000F600EB0203C9EF2BFFEE3AFEED39FDD0E0FB34
:1001060050130BBB00030203F1ED13FDEE13FEEFDC
:0801160013FFEC13FC0203C906
:10011E00EC4D6011E8497017ED33EC3304600DE4DB
:10012E00FCFFFEFD22E933E8330470F80203E71208
:10013E0003B258046009E4CC248150062850090209
:10014E0003F12840030203EEC0E0EB4A7044B9808D
:10015E0006D0E0FB0203DDEF4E701CBD8008EBFF06
:10016E00EAFEE9FD80EBE98DF0A4FEE5F002020760
:10017E00E9CDF9EAFEEBFFEF89F0A4FCE5F0CE89BC
:10018E00F0A42EFFE435F0CD89F0A42DFEE435F079
:10019E008067EF4E7005BD80D780C3EF8BF0A4ACA7
:1001AE00F0EE8BF0A42CFCE435F0F8EF8AF0A42CE2
:1001BE00E5F038FCE433CB8DF0A42CFCE5F03BF8F5
:1001CE00EE8AF0A42CFCE5F038F8E433CF89F0A4E5
:1001DE002CFCE5F038CF3400CE89F0A42FFFE5F0EB
:1001EE003EFEE433C98DF0A42EFEE5F039CD8AF043
:1001FE00A42FFFE5F03EFEE43DFD33D0E0FB5007BB
:10020E000BBB000F0203F1EC2CFCEF33FFEE33FEC1
:06021E00ED33FD0203C9EF
:100224000203F1EC5D046005E8590470030203E77E
:100234001203B2580460F6EC4860F2EC7004FDFE60
:10024400FF22C860DB2481C85009C39860025006AD
:100254000203EE9850CAF582E9294B4A7005AB8235
:100264000203DD75F0007C1A7880C3EF9BEE9AEDF3
:1002740099400DC3EF9BFFEE9AFEED99FDE842F025
:10028400DC23ACF0D0E0FFD0E0FED0E0FDAB822078
:10029400E7101BEB60BAEC2CFCEF33FFEE33FEED02
:1002A40033FD0203C9E803F830E705C0F075F00038
:1002B400EF2FFFEE33FEED33FD40B830E7C280AAE6
:1002C40074F8CC6480CCC86480C8F58204604FC3E1
:1002D400EB9FF5F0EA9E42F0E99D42F0E89C45F080
:1002E400603C501DE5825FFFE582D313CB5BCBF40A
:1002F4002B5582FB50280ABA002409B90020088033
:100304001DE5825BFBE582D313CF5FCFF4C3132FCC
:100314005582FF50090EBE00050DBD00010CC3EB54
:100324009FF5F0EA9E42F0E99D42F0E89C45F060BA
:0903340007CC4820E701B3EC22DC
:10033D0075F020800E75F010800575F0087D007E3B
:10034D00007F003392D530D5031207D9EC3340101E
:10035D00EF33FFEE33FEED33FDEC33FCD5F0ED2244
:0E036D00E5F0247EA2D513CC92E7CDCEFF2280
:10037B00EDD2E7CD33EC3392D524814006E4FFFE7A
:10038B00FDFC22FCE4CFCECDCC24E0501174FF80D9
:10039B00EDC3CC13CCCD13CDCE13CECF13CF047076
:0703AB00F030D5DE0207D996
:1008AD00E50D2404F582E43401F583E0050D229075
:1008BD000101301003900104E475F00112083A02B1
:1008CD0005AE2009E97F2ED2098018EF540F249030
:1008DD00D43440D4FF300D0BEF24BFB41A005003B5
:1008ED002461FFE50E6002150E0511E5117002057C
:1008FD001030100E900101E475F00112083AEF026C
:10090D0005F40226797403D2108003E4C210F50DAC
:10091D00900101120851E4F50EF510F511E50E6088
:10092D00077F201208F080F5750FFFC20AC209C2B9
:10093D000BC20CC20EC20FC2111208BCFF700D30DB
:10094D0010057F00120901AF11AE1022B4255FC250
:10095D00D5C20D1208BCFF24D0B40A00501A75F090
:10096D000A780E30D50508B6FF0106C6A426F62076
:10097D00D5047002D20C80D924CFB41A00EF5004E4
:10098D00C2E5D20D020BF3D20A80C6D20980C0D2C5
:10099D000B80BCD2D580BAD20E80B47F201208F065
:1009AD00200B077401B50E0040F11208ADFF1208BF
:1009BD00F002092AD211D20F80951208ADFB120850
:1009CD00ADFA1208ADF94A4B700679F17A0C7BFF3E
:1009DD00200B2EE50E602A7E008E82758300120597
:1009ED00C760060EEE650F70F0C2D5EBC0E0EAC031
:1009FD00E0E9C0E0EE120C54D0E0F9D0E0FAD0E01E
:100A0D00FB1205AEFF60AAEBC0E0EAC0E0E9C0E072
:100A1D001208F0D0E02401F9D0E03400FAD0E0FB68
:100A2D00E50F0460DCD50FD98087D20B80A2120CA4
:100A3D003660F7E50F7001041203FCA90F600DE598
:100A4D000F600914F50F120CDEEF60F3EA30E702C8
:100A5D00F404C3995079EAF4250F0430E701E40456
:100A6D00F50F800D120C3660C1EA050F250F12032C
:100A7D00FCEA900130F030E701E4250F04D50F04B6
:100A8D00200E0114120C54E4C0E0120CDE90013063
:100A9D00E0601320E70714F01208D8802204F0D08C
:100AAD00E014C0E07F001208D8E50F60071208CFF0
:100ABD00150F800B300E031208CFD0E002092AD09B
:100ACD00E00480C4120C36609EE50F041203FC9006
:100ADD000130EAF0E50F200E026001042404120C2F
:010AED0054B4
:100AEE0074FF04C0E0120CDE1208D8E50F200E02CF
:100AFE0060031208CFD0E0B50FE87F451208E290F0
:100B0E000130E07F2B30E7047F2DF404C0E01208A3
:100B1E00F0D0E075F00A84C0F01208D9D0E01208C7
:100B2E00D902092A791080027908C20FC2118008F1
:100B3E00D2D5790A8004790AC2D5E50F047002F580
:100B4E000FE4FAFDFEFF1208ADFC7B08200A13121B
:100B5E0008ADFD7B1030090A1208ADFE1208ADFF7C
:100B6E007B20EC3382D592D55013C3E43009069F17
:100B7E00FFE49EFEE4200A039DFDE49CFCE4CBF81A
:100B8E00C20AEC700CCFCECDCCE824F8F870F3800E
:100B9E0017C3EF33FFEE33FEED33FDEC33FCEB33D7
:100BAE00FB994002FB0FD8E9EB300A05F8D0E0C400
:100BBE0048B20AC0E00AEC4D4E4F78207B0070C25E
:100BCE00EAB50F0040BCC0E0120C56D0F0D0E020C9
:100BDE000A04C4C0E0C4B20AC0F01208D9D0F0D5DD
:100BEE00F0EB02092A12085A09C7530B325809981A
:100BFE004C0994420B364F0B3E440B3E4909AD4314
:100C0E000B44550A71460AD1450A3B470D1150094E
:100C1E009C2D09A02E09C32B09A42309C1200CFA6F
:100C2E002A095C48000009BBE50FB4FF03750F06E7
:100C3E001208ADFC1208ADFD1208ADFE1208ADFF94
:100C4E00900129020439790AA2D5200C14300E091C
:100C5E00B910020404B9080104A2D5200F025001F4
:100C6E0004200B68920BB50E005034C0E07F20308C
:100C7E000C197F30A20B720F720E500F120CADC2F8
:100C8E000BC20FC20EC2117F30800F300E03E9C0AF
:100C9E00E01208F0300E03D0E0F9D0E0B50ECC3003
:100CAE000E177F30B9100C1208F07F58300D077FE9
:100CBE00788003B908031208F0300B057F2D020867
:100CCE00F07F202011F87F2B200FF322920B80CF84
:100CDE007F00B40700500B2429F582E43401F5831C
:100CEE00E0FF22286E756C6C2900D20A1208AD3016
:100CFE000AF8C20A780E30D50108F602095C2D50AA
:100D0E004349581208AD2403B405004001E4900D88
:100D1E000C931208E1743A1208E1D20C750E04021B
:020D2E000B3286
:1003B200E9D2E7C933E833F892D5EDD2E7CD33EC91
:0703C20033FC5002B2D5220A
:1003C900EC30E7100FBF000C0EBE00080DBD000495
:1003D9000BEB6014A2D5EB13FCED92E7FD2274FF41
:1003E900FCFDFEFF22E480F8A2D574FF13FC7D809A
:0303F900E480EFAE
:1003FC00F920E73624F950037907E4F42402FBE5ED
:10040C0082158270021583DBF6E024FB501BE96039
:10041C0014E4F0E582158270021583E004F0B40A4E
:0D042C0008E4F0D9EE7401F00A22C2D522D6
:10043900ED33EC3392D5FA602AB4FF33EDC2E77B92
:10044900FF60067A04795EE4227A04796720D5048C
:100459007A047962224E614E002B494E46002D499D
:100469004E4600E47A08F0A3DAFC7B00740722C048
:1004790083C082ECC0E0EDC0E0EEC0E0EFC0E0EA8E
:1004890075F010A4CAABF075F04DA42BFBE435F060
:10049900FCEA2410FAEB34C5FBEC34D9FCEDC2E7D5
:1004A900FF75F056A4F42411C5F0F434C58FF0A4F7
:1004B9002AE5F03BE43CF020E71412056ED0E0FF9A
:1004C900D0E0FED0E0FDD0E0FC1202278014F40455
:1004D90012056ED0E0FFD0E0FED0E0FDD0E0FC12C6
:1004E900011ED082D083E0FAEDD2E7CD33EC33247C
:1004F90082FBE4C3CF33CFCE33CECD33CD33DBF361
:100509007B0775F00A846004F0A31B0AE5F0F0A3E9
:100519008FF0740AA4FFACF08EF0740AA42CFEAC20
:10052900F050010C8DF0740AA42CFDE435F0F0A311
:05053900DBDE74072267
:10053E003F8000004120000042C80000447A0000C5
:10054E00461C400047C35000497424004B18968047
:10055E004CBEBC205A0E1BCA6753C21C749DC5AE3E
:10056E00FB60065407601C232312059CEB54386075
:10057E000912058812059712011EECF8EDF9EEFA34
:10058E00EFCB22EB12059780F1543803241C900513
:10059E003EFE93FC0EEE93FD0EEE930ECE93FF22D7
:10202A00021F78E493A3F8E493A34003F68001F235
:10203A0008DFF48029E493A3F85407240CC8C333B7
:10204A00C4540F4420C8834004F456800146F6DF86
:10205A00E4800B0102040810204080901572E47E8F
:10206A00019360BCA3FF543F30E509541FFEE4937B
:10207A00A360010ECF54C025E060A840B8E493A342
:10208A00FAE493A3F8E493A3C8C582C8CAC583CA6D
:10209A00F0A3C8C582C8CAC583CADFE9DEE780BE25
:0116B7000032
:1005AE00BB010689828A83E0225002E722BBFE024B
:0905BE00E32289828A83E493227E
:1005C700BB010CE58229F582E5833AF583E02250E9
:1005D70006E92582F8E622BBFE06E92582F8E22233
:0D05E700E58229F582E5833AF583E493224D
:1005F400BB010689828A83F0225002F722BBFE01E6
:02060400F322DF
:10060600BC000BBE0029EF8DF084FFADF022E4CCD8
:10061600F875F008EF2FFFEE33FEEC33FCEE9DECA1
:10062600984005FCEE9DFE0FD5F0E9E4CEFD22EDE7
:10063600F8F5F0EE8420D21CFEADF075F008EF2F31
:10064600FFED33FD4007985006D5F0F222C398FD22
:050656000FD5F0EA22BF
:10065B00C5F0F8A3E028F0C5F0F8E582158270022A
:06066B001583E038F022C7
:10067100A3F8E0C5F025F0F0E5821582700215833C
:06068100E0C838F0E82299
:10068700BB0110E58229F582E5833AF583E0F5F0B1
:10069700A3E0225009E92582F886F008E622BBFE8E
:1006A7000AE92582F8E2F5F008E222E5832AF583D4
:0806B700E993F5F0A3E9932299
:1006BF00BB010A89828A83F0E5F0A3F0225006F786
:0F06CF0009A7F01922BBFE06F3E5F009F3192283
:1006DE00F8BB0111E58229F582E5833AF583E8F04E
:1006EE00E5F0A3F0225009E92582C8F608A6F0220B
:0D06FE00BBFE09E92582C8F2E5F008F222F2
:10070B0075F008758200EF2FFFEE33FECD33CDCCA5
:10071B0033CCC58233C5829BED9AEC99E582984028
:10072B000CF582EE9BFEED9AFDEC99FC0FD5F0D605
:10073B00E4CEFBE4CDFAE4CCF9A88222B800C1B92F
:10074B000059BA002DEC8BF084CFCECDFCE5F0CB6D
:10075B00F97818EF2FFFEE33FEED33FDEC33FCEBA6
:10076B0033FB10D703994004EB99FB0FD8E5E4F961
:10077B00FA227818EF2FFFEE33FEED33FDEC33FC4E
:10078B00C933C910D7059BE99A4007EC9BFCE99A42
:10079B00F90FD8E0E4C9FAE4CCFB2275F010EF2F87
:1007AB00FFEE33FEED33FDCC33CCC833C810D70787
:1007BB009BEC9AE899400AED9BFDEC9AFCE899F8C2
:0E07CB000FD5F0DAE4CDFBE4CCFAE4C8F92255
:0E07D900C3E49FFFE49EFEE49DFDE49CFC2231
:1007E700EB9FF5F0EA9E42F0E99D42F0EC6480C889
:0607F70064809845F02229
:0C07FD00ECF0A3EDF0A3EEF0A3EFF0226F
:10080900A8828583F0D083D0821208201208201292
:100819000820120820E473E493A3C583C5F0C583B7
:10082900C8C582C8F0A3C583C5F0C583C8C582C839
:01083900229C
:10083A00F8E0FBA3A3E0F925F0F0E5821582700247
:07084A001583E0FA38F022EB
:09085100EBF0A3EAF0A3E9F022A8
:10085A00D083D082F8E4937012740193700DA3A32D
:10086A0093F8740193F5828883E473740293686041
:06087A00EFA3A3A380DF41
:10088000EC8EF0A4CCC5F0CCCDF8EFA4CEC5F02D05
:10089000FDE43CFCE8A42EC8C5F03DFDE43CFCEFC3
:0D08A000A4FFE5F028FEE43DFDE43CFC2251
:00000001FF
