:0300000002217E5C
:0C217E00787FE4F6D8FD7581220221C5AF
:101AD400206B65795F7363616E0D0A00204B455975
:101AE4005F325F505245530D0A0074696D65723A56
:101AF4002564200D0A005054435F52203D20256682
:101B040020200D0A005054435F74656D7065722087
:101B14003D20256420200D0A004E54435F52203D91
:101B240020256620200D0A004E54435F74656D70B5
:101B3400203D20256420200D0A0041433A0D0A006F
:101B44002025642020000D0A0070646174615F61C7
:101B5400635F6D6178203D2025640D0A00496E7332
:101B64006572743A0D0A0070646174615F696E7322
:101B74006572745F6D6178203D2025640D0A000D47
:101B84000A3D3D3D3D3D3D3D3D3D3D3D3D3D3D3DB4
:101B94003D3D3D3D3D3D3D3D3D3D3D3D3D3D3D3D71
:101BA4003D3D3D0D0A00736B753A4B2564200D0ACB
:101BB40000736F66742076657273696F6E3A25736D
:101BC400200D0A00312E30302E3030006761702035
:101BD4002564200D0A0074696D6572202564200D4A
:101BE4000A003D3D3D3D3D3D3D3D3D3D3D3D3D3D91
:101BF4003D3D3D3D3D3D3D3D3D3D3D3D3D3D3D3D11
:071C04003D3D3D3D0D0A00CE
:10140800603C005F0041003C00370032002D002A9C
:10141800002700240021001E001C001A00180016D6
:101428000013001200110010000F000D000C000B3B
:10143800000A000900080007000600050004000370
:10144800602800C400000000000000000000000048
:101458000000000000000000000000000000000084
:101468000000000000000000000000006028000CE0
:101478000000000000000000000000000000000064
:101488000000000000000000000000000000000054
:101498000000000000000000602800360000000086
:1014A8000000000000000000000000000000000034
:1014B8000000000000000000000000000000000024
:1014C800000000006028009C0000000000000000F0
:1014D8000000000000000000000000000000000004
:1014E80000000000000000000000000000000000F4
:1014F800420034000041009B0041005E004100ECC6
:101508000141000B004200000000420002000042BE
:1015180000040000420006000042000800004100EC
:021528000A00B7
:101E0300E49000EDF090005EE0700A122368900009
:101E1300EDEFF08005E49000EDF09000EDE064015B
:101E230070287BFF7A1A79D41209181227F7EF70FA
:101E33000A7F011227FDE4FF02276EE4FF1227FD4C
:101E430012220A90009B7401F0221227F7EF70749C
:101E53009000EDE06402702D7BFF7A1A79E012099D
:101E63001890016BE0C394045005E004F0800690E1
:101E7300016B7401F090009B7401F090016BE0FF23
:101E830012280F803C9000EDE06403703790016CE2
:101E9300E0C394055005E004F08005E490016CF084
:101EA3007BFF7A1A79EE90016CE0FF900136E4F043
:101EB300A3EFF012091890016CE0FF122809122217
:041EC3000A1225EDED
:011EC70022F8
:0B0D30009000EFEBF0A3EAF0A3E9F065
:100D3B00A3120809000000009000F6120809000039
:100D4B000000E49000FAF0A3F0A3F0A37419F012E2
:100D5B00199A9000EFE0FBA3E0FAA3E0F9900026CC
:100D6B00120687FDACF0E41203427B007AF0797F28
:100D7B0078451202279000F21207FD9000F2E0FC7A
:100D8B00A3E0FDA3E0FEA3E0FF7B667A667986789D
:100D9B004012011E9000F21207FD9000F2E0FCA33E
:100DAB00E0FDA3E0FEA3E0FF7BF47AFD79B4783F8E
:100DBB001202279000F21207FD9000F2E0F8A3E078
:100DCB00F9A3E0FAA3E0FBE4FFFE7DF07C42120006
:100DDB00299000F61207FD9000F2E0F8A3E0F9A3CA
:100DEB00E0FAA3E0FBA3E0FCA3E0FDA3E0FEA3E09D
:100DFB00FF1202277BF67A2879DC783E12011E90CF
:100E0B0000F61207FD7BFF7A1A79FA9000F6E0FCE8
:100E1B00A3E0FDA3E0FEA3E0FF9001361207FD1255
:100E2B0009187F297EDC7DF57C429000F6E0F8A363
:100E3B00E0F9A3E0FAA3E0FB1202C45004E4FEFFC6
:100E4B0022E4FFFE7D057C439000F6E0F8A3E0F979
:100E5B00A3E0FAA3E0FB1202C460654063E4FFFE6B
:100E6B007D057CC39000F6E0F8A3E0F9A3E0FAA3BC
:100E7B00E0FB12002D9000F21207FD7B857AEB79D7
:100E8B0011783F9000F2E0FCA3E0FDA3E0FEA3E0AD
:100E9B00FF12022712037B9000FAEEF0A3EFF09003
:100EAB0000FDE02FF09000FCE03EF0D3A3E0946453
:100EBB009000FCE094005003020F4D7E007FFF2258
:100ECB00E4FFFE7D057C439000F6E0F8A3E0F9A378
:100EDB00E0FAA3E0FB1202C450689000F6E0F8A31E
:100EEB00E0F9A3E0FAA3E0FBE4FFFE7D057C4312EF
:100EFB0000299000F21207FD7B857AEB7911783F80
:100F0B009000F2E0FCA3E0FDA3E0FEA3E0FF1202E1
:100F1B002712037B9000FAEEF0A3EFF0D39419EEB7
:100F2B00940040099000FAE4F0A37419F09000FAD1
:100F3B00E0FEA3E0FFC39000FDE09FF09000FCE01B
:100F4B009EF07BFF7A1B79099000FCE0FFA3E090F9
:100F5B000136CFF0A3EFF01209189000FCE0FEA3CE
:020F6B00E0FFA5
:010F6D002261
:0B183C009000EFEBF0A3EAF0A3E9F04E
:10184700A3120809000000009000F6120809000022
:101857000000E49000FAF0A3F0A3120809000000CA
:101867000012199A9000EFE0FBA3E0FAA3E0F990C9
:101877000026120687FDACF0E41203427B007AF0E3
:10188700797F78451202279000F21207FD9000F247
:10189700E0FCA3E0FDA3E0FEA3E0FFE4FBFA798010
:1018A700784012011E9000F21207FD9000F2E0FC52
:1018B700A3E0FDA3E0FEA3E0FF7BF47AFD79B47813
:1018C7003F1202279000F21207FD9000F2E0F8A302
:1018D700E0F9A3E0FAA3E0FBE4FFFE7DF07C42120F
:1018E70000299000F61207FD9000F2E0F8A3E0F956
:1018F700A3E0FAA3E0FBA3E0FCA3E0FDA3E0FEA3C3
:10190700E0FF120227E4FBFA79FF784312011E90E9
:1019170000F61207FD7BFF7A1B791D9000F6E0FCAD
:10192700A3E0FDA3E0FEA3E0FF9001361207FD123E
:101937000918E4FBFA797A78449000F6E0FCA3E012
:10194700FDA3E0FEA3E0FF12022712037B9000FC39
:101957001207FD7B017A00795F9000FCA3A3E0FFEB
:10196700A3E0900104CFF0A3EFF07D1E1215767E61
:10197700009000FAEEF0A3EFF07BFF7A1B792C9032
:101987000136EEF0A3EFF01209189000FAE0FEA37B
:02199700E0FF6F
:01199900222B
:0B128F009000EFEBF0A3EAF0A3E9F001
:10129A009000F5120809000000009000F9120809F0
:1012AA0000000000E49000FDF0A3F0A3120809007A
:1012BA0000000012199A7BFF7A1B793E120918E482
:1012CA009000FDF0A3F09000FDE0FEA3E0FFC394C0
:1012DA0014EE64809480503CEF25E0FFEE33FE90DC
:1012EA0000EFE0FBA3E0FAA3E0F98F828E831206F7
:1012FA0087FF900136E5F0F0A3EFF07BFF7A1B79C8
:10130A00441209189000FEE004F070BA9000FDE063
:10131A0004F080B27BFF7A1B794A1209189000EF19
:10132A00E0FBA3E0FAA3E0F9900026120687FF90FB
:10133A000136E5F0F0A3EFF07BFF7A1B794D120935
:10134A00187BFF7A1B794A1209187BFF7A1B794AA4
:10135A001209187BFF7A1B79611209189000F2E0D2
:10136A00FBA3E0FAA3E0F912199AE49000FDF0A3B6
:10137A00F09000FDE0FEA3E0FFC39414EE648094B5
:10138A0080503CEF25E0FFEE33FE9000F2E0FBA335
:10139A00E0FAA3E0F98F828E83120687FF90013666
:1013AA00E5F0F0A3EFF07BFF7A1B7944120918905D
:1013BA0000FEE004F070BA9000FDE004F080B27B19
:1013CA00FF7A1B794A1209189000F2E0FBA3E0FAAF
:1013DA00A3E0F9900026120687FF900136E5F0F0A7
:1013EA00A3EFF07BFF7A1B796B1209187BFF7A1B3C
:0E13FA00794A1209187BFF7A1B794A020918FA
:10110A00E49000EDF0A3F0900035E004F070069052
:10111A000034E004F09000ECE0640160030211F492
:10112A0090000875F00112065BFEC3E5F09432EEFA
:10113A00940050030211E3E4900008F0A3F07B014D
:10114A009000F204F0A37400F0A37402F07A00791C
:10115A000012250E9000F27401F0A37400F0A3743B
:10116A0006F07B017A007904122540900002E0FE25
:10117A00A3E0FF90000AE0FD25E024C4F582E434F0
:10118A0000F583EEF0A3EFF0900000E0FEA3E0FF8D
:10119A00ED25E0240CF582E43400F583EEF0A3EFAC
:1011AA00F0900004E0FEA3E0FFED25E02436F5828E
:1011BA00E43400F583EEF0A3EFF0900006E0FEA31E
:1011CA00E0FFED25E0249CF582E43400F583EEF09F
:1011DA00A3EFF090000AE004F090000AE0D3941420
:1011EA004008E4F09000EC7402F0900034E0FEA3B2
:1011FA00E0FFE4FCFD7B507AC3F9F8D31207E7401D
:10120A000302128EE4900034F0A3F09000ECE0B4F4
:10121A0002377B017A0079C412183C7B017A007983
:10122A000C120D309000EDEEF0A3EFF09000F27486
:10123A0001F0A37400F0A3749CF07B017A00793664
:10124A0012128F9000EC7401F090009BE0B4011A26
:10125A00E4F0D39000EEE094329000EDE094009038
:10126A0001657401F090016A04F090016CE0FF12CC
:10127A00280990016BE0FF12280F7F0A12276EE4FB
:04128A0090005EF082
:01128E00223D
:10203D001227DB12259C122639D2AF12000E122761
:10204D009D121C0B7FC87E0012267F7F021227C2B5
:10205D001225721227EE7FB07E041227861227E515
:10206D007BFF7A1B79831209187BFF7A1B79AA9063
:10207D000136741FF0A37446F012091890013674DE
:10208D00FFF0A3741BF0A374C8F07BFF7A1B79B526
:10209D001209187BFF7A1B79D090016BE0FF90013C
:1020AD0036E4F0A3EFF01209187BFF7A1B79DA9072
:1020BD00016CE0FF900136E4F0A3EFF01209187BFC
:1020CD00FF7A1B79E612091812110A121E03122843
:0320DD001580F576
:0A27DB00758E5190FE917401F022FA
:10245F00900178EEF0A3EFF0A3ECF0A3EDF0C39FA3
:10246F00EC9E4004E4FF802290016AE0FFC39001DC
:10247F0079E09FFF900178E09400FED390017BE01C
:0E248F009F90017AE09E50057F0A12276E2270
:10228500900180EEF0A3EFF090016BE0B40A0050EE
:102295006490229DF82828730222BB0222C70222DD
:1022A500D30222EB0222DF0222EB0222EB0222EB17
:1022B5000222EB0222EB900180E0FCA3E0FD7F1EF1
:1022C500802E900180E0FCA3E0FD7F32802290010A
:1022D50080E0FCA3E0FD7F3C8016900180E0FCA33C
:1022E500E0FD7F50800A900180E0FCA3E0FD7F4681
:0622F5007E0012245F22AE
:05157600900103EDF0FF
:10157B00E4900106F0A3F0ED24FFFEE434FFA3F0AA
:10158B00A3CEF0E490010CF0900107E025E0FF9072
:10159B000106E0338F82F583120687FF900104E08A
:1015AB00FCA3E0FDC39FEC95F04005A3A3E0FF2255
:1015BB00900109E025E0FF900108E0338F82F5836D
:1015CB00120687FFD3ED9FEC95F050037F642290BA
:1015DB000108E0FEA3E0FF900106E0FCA3E0FDC3E1
:1015EB009FEC9E40030216BAA3A3ED2FFFEC3EC364
:1015FB0013FEEF13FFA3EEF0A3EFF0E025E0FF9057
:10160B00010AE0338F82F583120687FF900104E015
:10161B00FCA3E0FD6F7003EC65F070030216BA904B
:10162B00010BE025E0FF90010AE0338F82F5831276
:10163B000687FFC3ED9FEC95F0502A90010BE02439
:10164B0001FF90010AE03400FEEF25E0FFEE338F3F
:10165B0082F583120687FFD3900105E09F9001046A
:10166B00E095F0504A90010BE025E0FF90010AE075
:10167B00338F82F583120687FFD3900105E09F908D
:10168B000104E095F090010AE0FFA3E04005900112
:10169B00088003900106CFF0A3EFF0900103E0FF69
:1016AB0090010CE0FE04F0EED39F50030215DA908C
:1016BB000108E0FEA3E0FFD3900107E09F90010635
:0F16CB00E09E40037F002290010AA3E02446FF27
:0116DA0022ED
:04199A007D147C003C
:08199E00900103ECF0A3EDF051
:1019A600E4900107F0A3F0900104E024FFFF90010A
:1019B60003E034FFFEC3900108E09FEE6480F890D8
:1019C6000107E06480984003021AD3E4900109F00D
:1019D600A3F0900104E024FFFF900103E034FFFE32
:1019E600900107E0FCA3E0FDC3EF9DFFEE9CFEA384
:1019F600E0FCA3E0FDC39FEE6480F8EC64809840B1
:101A060003021ABFED2401FFE43CFEEF25E0FFEEE2
:101A1600338F82F583120687FDACF090010AE0252C
:101A2600E0FF900109E0338F82F583120687D39D8C
:101A3600E5F09C4070900109E0FCA3E0FD25E0FF85
:101A4600EC338F82F583120687FF900105E5F0F0EF
:101A5600A3EFF0ED2401FFE43CFEEF25E0FFEE33BB
:101A66008F82F583120687FD90010AE025E0FF903C
:101A76000109E0338F82F583E5F08DF01206DE90E2
:101A86000105E0FCA3E0FD90010AE02401FF9001BE
:101A960009E03400FEEF25E0FFEE338F82F583EC9C
:101AA6008DF01206DE90010AE004F060030219D8F8
:101AB600900109E004F00219D8900108E004F060F2
:0D1AC600030219AD900107E004F00219AD14
:011AD30022F0
:0E27B400EF1F70011E144E6004000080F3221F
:102786007D407C03ED1D70011C144C70F7EF1F702B
:06279600011E144E70EA62
:01279C00221A
:1026390090FF037401F090FF02F090FF07F090FF04
:1026490001F075B4817F507E001227B490FE9B740F
:0326590041F0222B
:10270200E4FFFE75B50243B440E5B430E5FB53B4D3
:0A271200DFAEB7AFB6E4F5B7F5B6D9
:01271C00229A
:10271D00E4FFFE75B50743B440E5B430E5FB53B4B3
:0A272D00DFAEB7AFB6E4F5B7F5B6BE
:01273700227F
:10273800E4FFFE75B50343B440E5B430E5FB53B49C
:0A274800DFAEB7AFB6E4F5B7F5B6A3
:012752002264
:10275300E4FFFE75B50143B440E5B430E5FB53B483
:0A276300DFAEB7AFB6E4F5B7F5B688
:01276D002249
:10250E007F007E007D007C0012271DE4EE8FF0120E
:10251E0006BF7F147E001227B4E4FFFEFDFC1227D7
:10252E00029000F2E0FBA3E0FAA3E0F9EE8FF002D6
:02253E0006BFD6
:102540007F007E007D007C00122753E4EE8FF012A6
:1025500006BF7F147E001227B4E4FFFEFDFC1227A5
:10256000389000F2E0FBA3E0FAA3E0F9EE8FF0026E
:0225700006BFA4
:101D21000D0A3D3D3D3D3D3D3D3D3D3D3D3D3D3D45
:101D31003D3D3D3D3D3D3D3D3D3D3D3D3D3D3D3DD2
:101D41003D3D3D3D3D3D3D3D3D3D0D0A00706F77C3
:101D51006572206F6E20666C617368206761703AEE
:101D61002564202074696D65723A2564200D0A008E
:101D71003D3D3D3D3D3D3D3D3D3D3D3D3D3D3D3D92
:101D81003D3D3D3D3D3D3D3D3D3D3D3D3D3D3D3D82
:101D91003D3D3D3D3D3D3D3D0D0A003D3D3D3D3D12
:101DA1003D3D3D3D3D3D3D3D666972737420696E2B
:101DB100697420646174613D3D3D3D3D3D3D3D3D66
:101DC1003D3D200D0A0030782530345820203078F0
:101DD1002530345820203078253034582020307870
:101DE10025303458200D0A00666C617368206761E4
:101DF100703A2564202074696D65723A2564200D5E
:021E01000A00D5
:0B152A0044016D20200501410171010A
:0627F700900171E0FF22D9
:0627FD00900171EFF022D3
:1026A200D310AF01C3C0D075FDF075FC0F8EFA8F49
:1026B200F975FDD275FC2D75FDE175FC1ED0D09229
:0226C200AF2245
:1025C500D310AF01C3C0D08FFB75FDF075FC0FAE06
:1025D50004AF058EFA8FF975FDB475FC4B75FDE1F9
:0825E50075FC1ED0D092AF225C
:0C22FB007B017A01796B7D027F047E3C40
:10230700D310AF01C3C0D09000EEEEF0A3EFF0A35F
:0B231700EDF0A3EBF0A3EAF0A3E9F067
:10232200E4A3F0C2AFF09000F0E0FF9000F4E0C34D
:102332009F502C9000F1E0FBA3E475F001120671AE
:10234200A9F0FA1205AEFF9000EEE475F001120654
:1023520071ADF0FC1225C59000F4E004F080C7D204
:01236200AFCB
:05236300D0D092AF2272
:040003008F828E83D7
:03000700E493FF80
:01000A0022D3
:10241F009000EEEEF0A3EFF0A3EBF0A3EAF0A3E948
:10242F00F0AF051DEF60289000EEE475F001120685
:10243F007185F082F583E493FF9000F0E0FBA3E455
:10244F0075F001120671A9F0FAEF1205F480D2228D
:1024DB00E4FDFCED2400FFE4343CFE120003746DBC
:1024EB002DF582E43401F583E0B507030C80037FFF
:1024FB0000220DEDB404DCECC3940440037F0122F5
:02250B007F004F
:01250D0022AB
:101C0B00E49000EDF090FE927404F01224DBEF7080
:101C1B00079000ED04F080597BFF7A1D79211209A2
:101C2B00187B017A01796B7D027F047E3C12241FA5
:101C3B007BFF7A1D794E90016BE0FF900136E4F04B
:101C4B00A3EFF090016CE0FF900138E4F0A3EFF00C
:101C5B001209187BFF7A1D797112091890016BE03C
:101C6B00D394095006A3E0940540069000ED74014F
:101C7B00F09000EDE06401707A7BFF7A1D799C1285
:101C8B00091890016B7401F0A3F07F007E3C1226C3
:101C9B00A2FB7A01796D7D041223071222FB7B01D3
:101CAB007A01796D7D047F007E3C12241F7BFF7AC5
:101CBB001D79C790016DE0FF900136E4F0A3EFF0C2
:101CCB0090016EE0FF900138E4F0A3EFF090016F0C
:101CDB00E0FF90013AE4F0A3EFF0900170E0FF9089
:101CEB00013CE4F0A3EFF01209187BFF7A1D797128
:101CFB001209187BFF7A1D79E990016BE0FF9001C7
:101D0B0036E4F0A3EFF090016CE0FF900138E4F0C3
:061D1B00A3EFF00209181D
:1025ED007F047E3C1226A27B017A01796D7D047FEA
:1025FD00001223071222FB7B017A01796B7D027F8A
:06260D00047E3C02241FC4
:06153500C1124101820019
:10259C0090FF1674C1F090FF157460F090FFA0745A
:1025AC0026F090FFA114F075CEFF75CD9875CC0672
:0925BC00759E02759810D2AC2244
:0C27CF00C2AC8F993099FDC299D2AC22A7
:06280300AE071227CF22F0
:030023000226C4EE
:1026C400C0E0C083C082E59830E00E900182E599B5
:1026D400F05398EFD2125398FED082D083D0E032D8
:10265C004C4F4E475F4B45590D0A0054454D504564
:10266C00525F4B45590D0A0054494D455F4B455936
:03267C000D0A0044
:10153B0041017200420173000041017501420176C5
:02154B0000009E
:10279D0090FF107460F090FF00F090FF01F090FF3B
:0727AD001174C2F0D2A12259
:101F8600E49000EFF0A281339000EEF0900172E051
:101F960014602614604E1470030220292403600383
:101FA6000220329000EEE06003022037900173F0C9
:101FB600A3F090017204F080789000EEE0706B90D0
:101FC6000174E004F07006900173E004F0C3900120
:101FD60074E09403900173E09400403E90017274A3
:101FE60002F080369000EEE0B40106A37404F0809F
:101FF6003B900174E004F07006900173E004F0C3B6
:10200600900174E094C8900173E09400400C900035
:10201600EF7405F09001727403F07F0A7E001227B8
:1020260086800E9000EEE0B401078000E490017215
:06203600F09000EFE0FF56
:01203C002281
:10236800121F86BF050C7BFF7A26795C1209187F3D
:102378000122900175E0603030A00320802A7F326E
:102388007E00122786E4900175F020A00C7BFF7A6E
:102398002679671209187F02222080187BFF7A2687
:1023A80079741209187F032230A009308006900141
:1023B800757401F0308113D3900177E09401900196
:0C23C80076E094004004E4F0A3F07F00F5
:0123D40022E6
:04154D0041018300D5
:10276E007E00900183E0FD7C00120880E47B64FA19
:07277E00F9F81207478FDF95
:012785002231
:10267F0090FF1D74C2F090FF9C7435F0AC06AD074F
:10268F007E7A7F12120606EF14900183F0F5DE7545
:03269F00DD9722A2
:0D27C20075BD17EF75F02BA490FEA0F0225E
:0428150043BD10228D
:1023D5007365742074696D65207365636F6E643A07
:1023E50025640D0A0065786368616E67655F6865D9
:1023F50061745F76616C7565200D0A0074696D65A1
:10240500207365636F6E643A2564200D0A00746954
:0A2415006D65206F6666200D0A0059
:101551004201680000420166000041016A00410148
:071561006500420163000078
:1026E400900166EEF0A3EFF0E4A3F0A3F07BFF7A91
:0E26F4002379D5900136EEF0A3EFF00209181D
:10249D00900165E06401703590016375F0011206DD
:1024AD005BFED3E5F0940EEE940140217BFF7A2381
:1024BD0079EA120918E4900165F0900163F0A3F038
:0E24CD0090016BE0D3940190016A7402F0223A
:10220A00E4900168F0A3F090016CE0FF700890017F
:10221A0066F0A3F0804DEFB4010B9001667407F0ED
:10222A00A304F0803EEFB4020C900166740EF0A392
:10223A007410F0802EEFB4030C900166741CF0A3A6
:10224A007420F0801EEFB4040C9001667438F0A379
:10225A007440F0800EEFB4050A9001667470F0A322
:10226A007480F07BFF7A247901900166E0FFA3E095
:0B227A00900136CFF0A3EFF00209182E
:10000E00E490FE80F0F589758CF5758A9643A8020A
:04001E0043881022E1
:03000B000220E0F0
:1020E000C0E0C0F0C083C082C0D075D000C000C0C6
:1020F00001C002C003C004C005C006C0071227F714
:10210000EF705D900169E004F07006900168E004F2
:10211000F0C3900169E094F4900168E094014040BC
:1021200012249DD3900167E09400900166E0940032
:102130004027A3E024FFF0900166E034FFF0900117
:102140006CE060157F011227FD900166E4F0A3F0BA
:102150007BFF7A247913120918900168E4F0A3F048
:10216000121EC8D007D006D005D004D003D002D0AC
:0E21700001D000D0D0D082D083D0F0D0E032A9
:0D15680042017E000041017D0041017C0038
:1025720043D1E890FF62E04406F090FF61E0440836
:10258200F090FF60E04410F090FF6AE044F8F0C27F
:0A25920097C296C295C294C293222C
:0927E50090017E74CEF0A3F022F5
:1026130090017CE0FF700F90017E74CEF0A3F090E8
:10262300017C7401F022EFB4010B90017E74FFF082
:05263300E490017CF0C1
:01263800227F
:0628090090017FEFF022B8
:06280F0090017EEFF022B3
:0927EE0090017E74CCF0A3F022EE
:101EC80090017DE0B408004003021F80901EDBF8FB
:101ED800282873021EF3021F03021F14021F270281
:101EE8001F3C021F4C021F5D021F7053D1EF120FDF
:101EF8006E1216DB90017D7401F022C292D291120B
:101F08000F721216DB90017D7402F022C292C29108
:101F1800D2A3120F741216DB90017D7403F022C253
:101F280092C291C2A3D2B4120F761216DB90017D31
:101F38007404F02243D110120F6E1216DB90017D4B
:101F48007405F022C292D291120F721216DB900120
:101F58007D7406F022C292C291D2A3120F74121697
:101F6800DB90017D7407F022C292C291C2A3D2B461
:0E1F7800120F761216DB8000E490017DF0223D
:0516DB0090017EE0FF1C
:1016E000EF14606014700302177E1470030217B8C1
:1016F0002437700302183124FE700302182624CF09
:1017000070030217EF24FB600302183B90017DE099
:10171000FF6003B40404C295C294EF64016004EF57
:10172000B40504D295D294EF64026004EFB40604C9
:10173000D295D294EF64036008EF64076003021847
:101740003B02182190017DE0FF6003B40404C295C0
:10175000C294EF64016004EFB40504D295C294EF23
:1017600064026004EFB40604D295C294EF6403608F
:1017700008EF6407600302183BC295C294229001EF
:101780007DE0FF6003B40404D295C294EF6401606D
:1017900004EFB40504D295C294EF64026004EFB480
:1017A0000604C295D294EF64036008EF64076003F7
:1017B00002183BD295D2942290017DE0FF6003B4E1
:1017C0000404D295C294EF64016004EFB40504D21E
:1017D00095C294EF64026004EFB40604D295D294EB
:1017E000EF64036005EF64077051D295C2942290B4
:1017F000017DE0FF6003B40404D295C294EF64015C
:101800006004EFB40504C295D294EF64026004EF63
:10181000B40604C295D294EF64036005EF640770C8
:101820001AC295D29422C297C296C295C294C2930C
:0C18300022D297D296D295D294D2932265
:0D0F6E00D292C291C2A3C2B490017FE0FFF5
:100F7B00EF14605D14700302101A14700302105802
:100F8B001470030210921470030210CC240560033A
:100F9B0002110990017DE0FF6003B40406C297C201
:100FAB0096C293EF64016004EFB40506D297D29614
:100FBB00D293EF64026004EFB40606C297D296C2D6
:100FCB0093EF64036046EF6407600302110902119B
:100FDB000390017DE0FF6003B40406D297C296C272
:100FEB0093EF64016004EFB40506D297D296D293C7
:100FFB00EF64026004EFB40606C297C296C293EF89
:10100B0064036008EF640760030211090211039087
:10101B00017DE0FF6003B40406C297C296C293EF52
:10102B0064016004EFB40506D297D296D293EF64B5
:10103B00026004EFB40606D297C296C293EF640324
:10104B006008EF6407600302110902110390017D30
:10105B00E0FF6003B40406C297C296D293EF64011B
:10106B006004EFB40506D297D296D293EF64026078
:10107B0004EFB40606C297C296C293EF64036005F1
:10108B00EF64077079807190017DE0FF6003B40419
:10109B0006C297D296C293EF64016004EFB40506C3
:1010AB00D297D296D293EF64026004EFB40606C2D5
:1010BB0097C296C293EF64036005EF6407703F809D
:1010CB003790017DE0FF6003B40406C297C296C25D
:1010DB0093EF64016004EFB40506D297D296D293D6
:1010EB00EF64026004EFB40606C297C296D293EF88
:0F10FB0064036004EFB40706D297D296D2932213
:100026000203E7E86480F8E933E83360110460F01E
:10003600ED33EC337009E8FCE9FDEAFEEBFF220440
:1000460060DED3EB9FEA9EE99DE8C2E78CF0C2F73B
:1000560095F0400CE8CCF8E9CDF9EACEFAEBCFFB07
:100066001203B285D0F05804700320D5B3E80470AB
:10007600075002B2D50203F192D5EC0460F7E4CC46
:10008600C0E0C398F8603B94186008400DD0E0FBD0
:100096000203C9E4FBFAC9FC8028E830E406E4C997
:1000A600FBE4CAFCE830E305E4C9CACBFCE8540724
:1000B6006010F8C3E913F9EA13FAEB13FBEC13FC2F
:1000C600D8F130F52FC3E49CFCEF9BFFEE9AFEEDD2
:1000D60099FDD0E0FBEF4E4D4C701222DB0302037C
:1000E600EEEC2CFCEF33FFEE33FEED33FDED30E7A7
:1000F600EB0203C9EF2BFFEE3AFEED39FDD0E0FB34
:1001060050130BBB00030203F1ED13FDEE13FEEFDC
:0801160013FFEC13FC0203C906
:10011E00EC4D6011E8497017ED33EC3304600DE4DB
:10012E00FCFFFEFD22E933E8330470F80203E71208
:10013E0003B258046009E4CC248150062850090209
:10014E0003F12840030203EEC0E0EB4A7044B9808D
:10015E0006D0E0FB0203DDEF4E701CBD8008EBFF06
:10016E00EAFEE9FD80EBE98DF0A4FEE5F002020760
:10017E00E9CDF9EAFEEBFFEF89F0A4FCE5F0CE89BC
:10018E00F0A42EFFE435F0CD89F0A42DFEE435F079
:10019E008067EF4E7005BD80D780C3EF8BF0A4ACA7
:1001AE00F0EE8BF0A42CFCE435F0F8EF8AF0A42CE2
:1001BE00E5F038FCE433CB8DF0A42CFCE5F03BF8F5
:1001CE00EE8AF0A42CFCE5F038F8E433CF89F0A4E5
:1001DE002CFCE5F038CF3400CE89F0A42FFFE5F0EB
:1001EE003EFEE433C98DF0A42EFEE5F039CD8AF043
:1001FE00A42FFFE5F03EFEE43DFD33D0E0FB5007BB
:10020E000BBB000F0203F1EC2CFCEF33FFEE33FEC1
:06021E00ED33FD0203C9EF
:100224000203F1EC5D046005E8590470030203E77E
:100234001203B2580460F6EC4860F2EC7004FDFE60
:10024400FF22C860DB2481C85009C39860025006AD
:100254000203EE9850CAF582E9294B4A7005AB8235
:100264000203DD75F0007C1A7880C3EF9BEE9AEDF3
:1002740099400DC3EF9BFFEE9AFEED99FDE842F025
:10028400DC23ACF0D0E0FFD0E0FED0E0FDAB822078
:10029400E7101BEB60BAEC2CFCEF33FFEE33FEED02
:1002A40033FD0203C9E803F830E705C0F075F00038
:1002B400EF2FFFEE33FEED33FD40B830E7C280AAE6
:1002C40074F8CC6480CCC86480C8F58204604FC3E1
:1002D400EB9FF5F0EA9E42F0E99D42F0E89C45F080
:1002E400603C501DE5825FFFE582D313CB5BCBF40A
:1002F4002B5582FB50280ABA002409B90020088033
:100304001DE5825BFBE582D313CF5FCFF4C3132FCC
:100314005582FF50090EBE00050DBD00010CC3EB54
:100324009FF5F0EA9E42F0E99D42F0E89C45F060BA
:0903340007CC4820E701B3EC22DC
:10033D0075F020800E75F010800575F0087D007E3B
:10034D00007F003392D530D5031207D9EC3340101E
:10035D00EF33FFEE33FEED33FDEC33FCD5F0ED2244
:0E036D00E5F0247EA2D513CC92E7CDCEFF2280
:10037B00EDD2E7CD33EC3392D524814006E4FFFE7A
:10038B00FDFC22FCE4CFCECDCC24E0501174FF80D9
:10039B00EDC3CC13CCCD13CDCE13CECF13CF047076
:0703AB00F030D5DE0207D996
:1008AD00E50D2436F582E43401F583E0050D229043
:1008BD000133301003900136E475F00112083A024D
:1008CD0005AE2009E97F2ED2098018EF540F249030
:1008DD00D43440D4FF300D0BEF24BFB41A005003B5
:1008ED002461FFE50E6002150E0511E5117002057C
:1008FD001030100E900133E475F00112083AEF023A
:10090D0005F40228037403D2108003E4C210F50D20
:10091D00900133120851E4F50EF510F511E50E6056
:10092D00077F201208F080F5750FFFC20AC209C2B9
:10093D000BC20CC20EC20FC2111208BCFF700D30DB
:10094D0010057F00120901AF11AE1022B4255FC250
:10095D00D5C20D1208BCFF24D0B40A00501A75F090
:10096D000A780E30D50508B6FF0106C6A426F62076
:10097D00D5047002D20C80D924CFB41A00EF5004E4
:10098D00C2E5D20D020BF3D20A80C6D20980C0D2C5
:10099D000B80BCD2D580BAD20E80B47F201208F065
:1009AD00200B077401B50E0040F11208ADFF1208BF
:1009BD00F002092AD211D20F80951208ADFB120850
:1009CD00ADFA1208ADF94A4B700679F17A0C7BFF3E
:1009DD00200B2EE50E602A7E008E82758300120597
:1009ED00C760060EEE650F70F0C2D5EBC0E0EAC031
:1009FD00E0E9C0E0EE120C54D0E0F9D0E0FAD0E01E
:100A0D00FB1205AEFF60AAEBC0E0EAC0E0E9C0E072
:100A1D001208F0D0E02401F9D0E03400FAD0E0FB68
:100A2D00E50F0460DCD50FD98087D20B80A2120CA4
:100A3D003660F7E50F7001041203FCA90F600DE598
:100A4D000F600914F50F120CDEEF60F3EA30E702C8
:100A5D00F404C3995079EAF4250F0430E701E40456
:100A6D00F50F800D120C3660C1EA050F250F12032C
:100A7D00FCEA900162F030E701E4250F04D50F0484
:100A8D00200E0114120C54E4C0E0120CDE90016231
:100A9D00E0601320E70714F01208D8802204F0D08C
:100AAD00E014C0E07F001208D8E50F60071208CFF0
:100ABD00150F800B300E031208CFD0E002092AD09B
:100ACD00E00480C4120C36609EE50F041203FC9006
:100ADD000162EAF0E50F200E026001042404120CFD
:010AED0054B4
:100AEE0074FF04C0E0120CDE1208D8E50F200E02CF
:100AFE0060031208CFD0E0B50FE87F451208E290F0
:100B0E000162E07F2B30E7047F2DF404C0E0120871
:100B1E00F0D0E075F00A84C0F01208D9D0E01208C7
:100B2E00D902092A791080027908C20FC2118008F1
:100B3E00D2D5790A8004790AC2D5E50F047002F580
:100B4E000FE4FAFDFEFF1208ADFC7B08200A13121B
:100B5E0008ADFD7B1030090A1208ADFE1208ADFF7C
:100B6E007B20EC3382D592D55013C3E43009069F17
:100B7E00FFE49EFEE4200A039DFDE49CFCE4CBF81A
:100B8E00C20AEC700CCFCECDCCE824F8F870F3800E
:100B9E0017C3EF33FFEE33FEED33FDEC33FCEB33D7
:100BAE00FB994002FB0FD8E9EB300A05F8D0E0C400
:100BBE0048B20AC0E00AEC4D4E4F78207B0070C25E
:100BCE00EAB50F0040BCC0E0120C56D0F0D0E020C9
:100BDE000A04C4C0E0C4B20AC0F01208D9D0F0D5DD
:100BEE00F0EB02092A12085A09C7530B325809981A
:100BFE004C0994420B364F0B3E440B3E4909AD4314
:100C0E000B44550A71460AD1450A3B470D1150094E
:100C1E009C2D09A02E09C32B09A42309C1200CFA6F
:100C2E002A095C48000009BBE50FB4FF03750F06E7
:100C3E001208ADFC1208ADFD1208ADFE1208ADFF94
:100C4E0090015B020439790AA2D5200C14300E09EA
:100C5E00B910020404B9080104A2D5200F025001F4
:100C6E0004200B68920BB50E005034C0E07F20308C
:100C7E000C197F30A20B720F720E500F120CADC2F8
:100C8E000BC20FC20EC2117F30800F300E03E9C0AF
:100C9E00E01208F0300E03D0E0F9D0E0B50ECC3003
:100CAE000E177F30B9100C1208F07F58300D077FE9
:100CBE00788003B908031208F0300B057F2D020867
:100CCE00F07F202011F87F2B200FF322920B80CF84
:100CDE007F00B40700500B245BF582E43401F583EA
:100CEE00E0FF22286E756C6C2900D20A1208AD3016
:100CFE000AF8C20A780E30D50108F602095C2D50AA
:100D0E004349581208AD2403B405004001E4900D88
:100D1E000C931208E1743A1208E1D20C750E04021B
:020D2E000B3286
:1003B200E9D2E7C933E833F892D5EDD2E7CD33EC91
:0703C20033FC5002B2D5220A
:1003C900EC30E7100FBF000C0EBE00080DBD000495
:1003D9000BEB6014A2D5EB13FCED92E7FD2274FF41
:1003E900FCFDFEFF22E480F8A2D574FF13FC7D809A
:0303F900E480EFAE
:1003FC00F920E73624F950037907E4F42402FBE5ED
:10040C0082158270021583DBF6E024FB501BE96039
:10041C0014E4F0E582158270021583E004F0B40A4E
:0D042C0008E4F0D9EE7401F00A22C2D522D6
:10043900ED33EC3392D5FA602AB4FF33EDC2E77B92
:10044900FF60067A04795EE4227A04796720D5048C
:100459007A047962224E614E002B494E46002D499D
:100469004E4600E47A08F0A3DAFC7B00740722C048
:1004790083C082ECC0E0EDC0E0EEC0E0EFC0E0EA8E
:1004890075F010A4CAABF075F04DA42BFBE435F060
:10049900FCEA2410FAEB34C5FBEC34D9FCEDC2E7D5
:1004A900FF75F056A4F42411C5F0F434C58FF0A4F7
:1004B9002AE5F03BE43CF020E71412056ED0E0FF9A
:1004C900D0E0FED0E0FDD0E0FC1202278014F40455
:1004D90012056ED0E0FFD0E0FED0E0FDD0E0FC12C6
:1004E900011ED082D083E0FAEDD2E7CD33EC33247C
:1004F90082FBE4C3CF33CFCE33CECD33CD33DBF361
:100509007B0775F00A846004F0A31B0AE5F0F0A3E9
:100519008FF0740AA4FFACF08EF0740AA42CFEAC20
:10052900F050010C8DF0740AA42CFDE435F0F0A311
:05053900DBDE74072267
:10053E003F8000004120000042C80000447A0000C5
:10054E00461C400047C35000497424004B18968047
:10055E004CBEBC205A0E1BCA6753C21C749DC5AE3E
:10056E00FB60065407601C232312059CEB54386075
:10057E000912058812059712011EECF8EDF9EEFA34
:10058E00EFCB22EB12059780F1543803241C900513
:10059E003EFE93FC0EEE93FD0EEE930ECE93FF22D7
:10218A0002203DE493A3F8E493A34003F68001F20E
:10219A0008DFF48029E493A3F85407240CC8C33356
:1021AA00C4540F4420C8834004F456800146F6DF25
:1021BA00E4800B0102040810204080901408E47E99
:1021CA00019360BCA3FF543F30E509541FFEE4931A
:1021DA00A360010ECF54C025E060A840B8E493A3E1
:1021EA00FAE493A3F8E493A3C8C582C8CAC583CA0C
:1021FA00F0A3C8C582C8CAC583CADFE9DEE780BEC4
:011575000075
:1005AE00BB010689828A83E0225002E722BBFE024B
:0905BE00E32289828A83E493227E
:1005C700BB010CE58229F582E5833AF583E02250E9
:1005D70006E92582F8E622BBFE06E92582F8E22233
:0D05E700E58229F582E5833AF583E493224D
:1005F400BB010689828A83F0225002F722BBFE01E6
:02060400F322DF
:10060600BC000BBE0029EF8DF084FFADF022E4CCD8
:10061600F875F008EF2FFFEE33FEEC33FCEE9DECA1
:10062600984005FCEE9DFE0FD5F0E9E4CEFD22EDE7
:10063600F8F5F0EE8420D21CFEADF075F008EF2F31
:10064600FFED33FD4007985006D5F0F222C398FD22
:050656000FD5F0EA22BF
:10065B00C5F0F8A3E028F0C5F0F8E582158270022A
:06066B001583E038F022C7
:10067100A3F8E0C5F025F0F0E5821582700215833C
:06068100E0C838F0E82299
:10068700BB0110E58229F582E5833AF583E0F5F0B1
:10069700A3E0225009E92582F886F008E622BBFE8E
:1006A7000AE92582F8E2F5F008E222E5832AF583D4
:0806B700E993F5F0A3E9932299
:1006BF00BB010A89828A83F0E5F0A3F0225006F786
:0F06CF0009A7F01922BBFE06F3E5F009F3192283
:1006DE00F8BB0111E58229F582E5833AF583E8F04E
:1006EE00E5F0A3F0225009E92582C8F608A6F0220B
:0D06FE00BBFE09E92582C8F2E5F008F222F2
:10070B0075F008758200EF2FFFEE33FECD33CDCCA5
:10071B0033CCC58233C5829BED9AEC99E582984028
:10072B000CF582EE9BFEED9AFDEC99FC0FD5F0D605
:10073B00E4CEFBE4CDFAE4CCF9A88222B800C1B92F
:10074B000059BA002DEC8BF084CFCECDFCE5F0CB6D
:10075B00F97818EF2FFFEE33FEED33FDEC33FCEBA6
:10076B0033FB10D703994004EB99FB0FD8E5E4F961
:10077B00FA227818EF2FFFEE33FEED33FDEC33FC4E
:10078B00C933C910D7059BE99A4007EC9BFCE99A42
:10079B00F90FD8E0E4C9FAE4CCFB2275F010EF2F87
:1007AB00FFEE33FEED33FDCC33CCC833C810D70787
:1007BB009BEC9AE899400AED9BFDEC9AFCE899F8C2
:0E07CB000FD5F0DAE4CDFBE4CCFAE4C8F92255
:0E07D900C3E49FFFE49EFEE49DFDE49CFC2231
:1007E700EB9FF5F0EA9E42F0E99D42F0EC6480C889
:0607F70064809845F02229
:0C07FD00ECF0A3EDF0A3EEF0A3EFF0226F
:10080900A8828583F0D083D0821208201208201292
:100819000820120820E473E493A3C583C5F0C583B7
:10082900C8C582C8F0A3C583C5F0C583C8C582C839
:01083900229C
:10083A00F8E0FBA3A3E0F925F0F0E5821582700247
:07084A001583E0FA38F022EB
:09085100EBF0A3EAF0A3E9F022A8
:10085A00D083D082F8E4937012740193700DA3A32D
:10086A0093F8740193F5828883E473740293686041
:06087A00EFA3A3A380DF41
:10088000EC8EF0A4CCC5F0CCCDF8EFA4CEC5F02D05
:10089000FDE43CFCE8A42EC8C5F03DFDE43CFCEFC3
:0D08A000A4FFE5F028FEE43DFDE43CFC2251
:00000001FF
