:030000000222E4F5
:0C22E400787FE4F6D8FD75812202232BE0
:101D7700206B65795F7363616E0D0A00204B4559CF
:101D87005F325F505245530D0A0074696D65723AB0
:101D97002564200D0A006D6178203D202564200D03
:101DA7000A007531203D202566200D0A0076312076
:101DB7003D202566200D0A007533203D202566202D
:101DC7000D0A0041435F73696E203D202566200D93
:101DD7000A004143203D202566200D0A000D0A3DDB
:101DE7003D3D3D3D3D3D3D3D3D3D3D3D3D3D3D3D1C
:101DF7003D3D3D3D3D3D3D3D3D3D3D3D3D3D3D3D0C
:101E07003D0D0A00736B753A4B2564200D0A00736C
:101E17006F66742076657273696F6E3A2573200D4D
:101E27000A00312E30302E30300067617020256473
:101E3700200D0A0074696D6572202564200D0A0063
:101E47003D3D3D3D3D3D3D3D3D3D3D3D3D3D3D3DBB
:101E57003D3D3D3D3D3D3D3D3D3D3D3D3D3D3D3DAB
:051E67003D3D0D0A00E5
:10174B00603C00630041003C00370032002D002A52
:10175B00002700240021001E001C001A0018001690
:10176B000013001200110010000F000D000C000BF5
:10177B00000A00090008000700060005000400032A
:10178B00602800C8000000000000000000000000FE
:10179B00000000000000000000000000000000003E
:1017AB000000000000000000000000006028000E98
:1017BB00000000000000000000000000000000001E
:1017CB00000000000000000000000000000000000E
:1017DB0000000000000000006028003A000000003C
:1017EB0000000000000000000000000000000000EE
:1017FB0000000000000000000000000000000000DE
:10180B0000000000602800A00000000000000000A5
:10181B0000000000000000000000000000000000BD
:10182B0000000000000000000000000000000000AD
:10183B00420036000041009F00410062004100F071
:10184B000141000C0041000D0041000B004200382B
:10185B0000004200000000420002000042000400B1
:0F186B00004200060000420008000041000A0091
:10202700E49000F1F0900062E0700A1224589000EA
:10203700F1EFF08005E49000F1F09000F1E0640129
:1020470070287BFF7A1D797712091812295DEF70C6
:102057000A7F01122963E4FF0228D4E4FF122963EF
:1020670012237090009F7401F02212295DEF7074A3
:102077009000F1E06402702D7BFF7A1D79831209CD
:102087001890016BE0C394045005E004F0800690BB
:10209700016B7401F090009F7401F090016BE0FFF9
:1020A70012297B803C9000F1E06403703790016C4B
:1020B700E0C394055005E004F08005E490016CF05E
:1020C7007BFF7A1D799190016CE0FF900136E4F077
:1020D700A3EFF012091890016CE0FF122975122383
:0420E70070122753F9
:0120EB0022D2
:0B0FE3009000F3EBF0A3EAF0A3E9F0AC
:100FEE00A3120809000000009000FA120809000080
:100FFE000000E49000FEF0A3F0A3F0A37419F01229
:10100E001A2F9000F3E0FBA3E0FAA3E0F99000267C
:10101E00120687FDACF0E41203427B007AF0797F72
:10102E0078451202279000F61207FD9000F6E0FCBC
:10103E00A3E0FDA3E0FEA3E0FF7B667A66798678E7
:10104E004012011E9000F61207FD9000F6E0FCA380
:10105E00E0FDA3E0FEA3E0FF7BF47AFD79B4783FD8
:10106E001202279000F61207FD9000F6E0F8A3E0BA
:10107E00F9A3E0FAA3E0FBE4FFFE7DF07C42120050
:10108E00299000FA1207FD9000F6E0F8A3E0F9A30C
:10109E00E0FAA3E0FBA3E0FCA3E0FDA3E0FEA3E0E7
:1010AE00FF1202277BF67A2879DC783E12011E9019
:1010BE0000FA1207FD7F297EDC7DF57C429000FA56
:1010CE00E0F8A3E0F9A3E0FAA3E0FB1202C4500497
:1010DE00E4FEFF22E4FFFE7D057C439000FAE0F87B
:1010EE00A3E0F9A3E0FAA3E0FB1202C4606540633B
:1010FE00E4FFFE7D057CC39000FAE0F8A3E0F9A3BF
:10110E00E0FAA3E0FB12002D9000F61207FD7B859E
:10111E007AEB7911783F9000F6E0FCA3E0FDA3E0B6
:10112E00FEA3E0FF12022712037B9000FEEEF0A357
:10113E00EFF0900101E02FF0900100E03EF0D3A31C
:10114E00E09464900100E0940050030211E37E00ED
:10115E007FFF22E4FFFE7D057C439000FAE0F8A3BA
:10116E00E0F9A3E0FAA3E0FB1202C450689000FA83
:10117E00E0F8A3E0F9A3E0FAA3E0FBE4FFFE7D05AF
:10118E007C431200299000F61207FD7B857AEB79DD
:10119E0011783F9000F6E0FCA3E0FDA3E0FEA3E093
:1011AE00FF12022712037B9000FEEEF0A3EFF0D3A6
:1011BE009419EE940040099000FEE4F0A37419F027
:1011CE009000FEE0FEA3E0FFC3900101E09FF090CF
:0D11DE000100E09EF0900100E0FEA3E0FFA4
:0111EB0022E1
:0B1C7F009000F3EBF0A3EAF0A3E9F003
:101C8A00A3120809000000007F007E007D007C008E
:101C9A009000FA12080900000000121A2F9000F3AF
:101CAA00E0FBA3E0FAA3E0F9900026120687FDAC58
:101CBA00F0E41203427B007AF0797F78451202271A
:101CCA009000F61207FD9000F6E0FCA3E0FDA3E009
:101CDA00FEA3E0FFE4FBFA7980784012011E90002F
:101CEA00F61207FD9000F6E0FCA3E0FDA3E0FEA3D8
:101CFA00E0FF7BF47AFD79B4783F1202279000F670
:101D0A001207FD9000F6E0F8A3E0F9A3E0FAA3E0D9
:101D1A00FBE4FFFE7DF07C421200299000F6E0F819
:101D2A00A3E0F9A3E0FAA3E0FB120227E4FBFA79A5
:101D3A00FF784312011EE4FBFA797A7844120227EB
:101D4A0012037B9000FA1207FD7B017A00796390F7
:101D5A0000FAA3A3E0FFA3E0900102CFF0A3EFF003
:0C1D6A007D1E1218CA7583008F827E0057
:011D7600224A
:0B11EC009000F3EBF0A3EAF0A3E9F0A1
:1011F7009000F9120809000000009000FD1208098C
:1012070000000000E4900101F0A3F07D14FC121A25
:10121700339000F3E0FBA3E0FAA3E0F99000261275
:101227000687FFAEF0900039E02FF0900038E03EDF
:10123700F090000BE0FF04F0EFD394095003021382
:10124700B27BFF7A1D799D900038E0FFA3E0900103
:1012570036CFF0A3EFF012091890000BE0FD7C00E9
:10126700900038E0FEA3E0FF120606AC06AD07E4E7
:101277001203429000F91207FDE4900038F0A3F042
:1012870090000BF07BFF7A1D79A99000F9E0FCA391
:10129700E0FDA3E0FEA3E0FF9001361207FD12096F
:1012A70018E4FBFA798078459000F9E0FCA3E0FDAB
:1012B700A3E0FEA3E0FF1202277B667A66798678B1
:1012C7004012011E9000F91207FD7BFF7A1D79B4C9
:1012D7009000F9E0FCA3E0FDA3E0FEA3E0FF90018E
:1012E700361207FD1209187BCD7ACC792C784090FD
:1012F70000F9E0FCA3E0FDA3E0FEA3E0FF12022754
:10130700E4FBFA795C784312011E9000FD1207FD99
:101317007BFF7A1D79BF9000FDE0FCA3E0FDA3E011
:10132700FEA3E0FF9001361207FD1209189000FD99
:10133700E0FCA3E0FDA3E0FEA3E0FF9000F9E0F8E6
:10134700A3E0F9A3E0FAA3E0FB12002D9000FD1241
:1013570007FD7BFF7A1D79CA9000FDE0FCA3E0FD45
:10136700A3E0FEA3E0FF9001361207FD12091890D3
:1013770000FDE0FCA3E0FDA3E0FEA3E0FF7BF47A21
:10138700FD79B4783F1202279000FD1207FD7BFF1D
:101397007A1D79D99000FDE0FCA3E0FDA3E0FEA350
:1013A700E0FF9001361207FD1209189000F6E0FBE6
:1013B700A3E0FAA3E0F9121A2F9000F6E0FBA3E0EE
:1013C700FAA3E0F9900026120687D39496E5F094E5
:0F13D70000400790000C7401F022E490000CF02D
:0113E60022E4
:1013E700E49000F1F0A3F0900037E004F07006906D
:1013F7000036E004F09000F0E0640160030214E7B7
:101407007F0A1228D4900008E475F00112065BFEEB
:10141700C3E5F09432EE940050030214C6E4900042
:1014270008F0A3F07B019000F604F0A37400F0A38A
:101437007402F07A0079001226749000F67401F0B5
:10144700A37400F0A37406F07B017A0079041226D6
:10145700A6900002E0FEA3E0FF90000AE0FD25E071
:1014670024C8F582E43400F583EEF0A3EFF0900092
:1014770000E0FEA3E0FFED25E0240EF582E4340052
:10148700F583EEF0A3EFF0900004E0FEA3E0FFED9C
:1014970025E0243AF582E43400F583EEF0A3EFF07B
:1014A700900006E0FEA3E0FFED25E024A0F582E42E
:1014B7003400F583EEF0A3EFF090000AE004F0901B
:1014C700000AE0D394144018E4F09000F07402F09E
:1014D70090000DE0B401047F0A8002E4FF1228D4D3
:1014E700900036E0FEA3E0FFE4FCFD7B507AC3F9F1
:1014F700F8D31207E740030215AEE4900036F0A3D5
:10150700F09000F0E0B402377B017A0079C8121C32
:101517007F7B017A00790E120FE39000F1EEF0A3C2
:10152700EFF09000F67401F0A37400F0A374A0F03C
:101537007B017A00793A1211EC9000F07401F09077
:10154700000CE06401705212295DEF703E90009F1D
:10155700E0B4011AE4F0D39000F2E094329000F185
:10156700E094009001657401F090016A04F0900125
:101577006CE0FF12297590016BE0FF12297B900048
:10158700F1E0FEA3E0FF1224C58008E4FF1228D48F
:1015970012294BE4900062F022E4FF1228D41227AC
:0715A700799000627401F06D
:0115AE00221A
:1021A30012294112270212279FD2AF12000E1229C1
:1021B30003121B697FC87E001227E57F02122928BC
:1021C3001226D81229547FB07E041228EC12294B10
:1021D3007BFF7A1D79E41209187BFF7A1E790B9035
:1021E3000136741FF0A37446F01209189001367477
:1021F300FFF0A3741EF0A37429F07BFF7A1E7916F7
:102203001209187BFF7A1E793190016BE0FF900170
:1022130036E4F0A3EFF01209187BFF7A1E793B90A6
:10222300016CE0FF900136E4F0A3EFF01209187B94
:10223300FF7A1E79471209181213E7122027122971
:032243008180F5A2
:0A294100758E5190FE917401F02292
:10252F009000F5EEF0A3EFF0A3ECF0A3EDF0C39F56
:10253F00EC9E400A90000D7402F0E4FF8028900199
:10254F006AE0FFC39000F6E09FFF9000F5E0940073
:10255F00FED39000F8E09F9000F7E09E500B9000A4
:0A256F000D7401F07F0A1228D42237
:1024C5009000F3EEF0A3EFF090016BE0B40A00503A
:1024D500589024DDF82828730224FB02251F0225C5
:1024E5000702251F02251302251F02251F02251F8E
:1024F50002251F02251F9000F3E0FCA3E0FD7F1ECF
:1025050080229000F3E0FCA3E0FD7F3C8016900064
:10251500F3E0FCA3E0FD7F50800A9000F3E0FCA30C
:0A252500E0FD7F467E0012252F2204
:0518CA00900101EDF0AA
:1018CF00E4900104F0A3F0ED24FFFEE434FFA3F055
:1018DF00A3CEF0E490010AF0900105E025E0FF901F
:1018EF000104E0338F82F583120687FF900102E037
:1018FF00FCA3E0FDC39FEC95F04005A3A3E0FF22FE
:10190F00900107E025E0FF900106E0338F82F58319
:10191F00120687FFD3ED9FEC95F050037F64229062
:10192F000106E0FEA3E0FF900104E0FCA3E0FDC38D
:10193F009FEC9E4003021A0EA3A3ED2FFFEC3EC3B4
:10194F0013FEEF13FFA3EEF0A3EFF0E025E0FF90FF
:10195F000108E0338F82F583120687FF900102E0C2
:10196F00FCA3E0FD6F7003EC65F07003021A0E909C
:10197F000109E025E0FF900108E0338F82F5831223
:10198F000687FFC3ED9FEC95F0502A900109E024E4
:10199F0001FF900108E03400FEEF25E0FFEE338FEA
:1019AF0082F583120687FFD3900103E09F90010217
:1019BF00E095F0504A900109E025E0FF900108E022
:1019CF00338F82F583120687FFD3900103E09F9038
:1019DF000102E095F0900108E0FFA3E040059001BF
:1019EF00068003900104CFF0A3EFF0900101E0FF18
:1019FF0090010AE0FE04F0EED39F500302192E90DF
:101A0F000106E0FEA3E0FFD3900105E09F900104E3
:0F1A1F00E09E40037F0022900108A3E02446FFD1
:011A2E002295
:041A2F007D147C00A6
:081A3300900103ECF0A3EDF0BB
:101A3B00E4900107F0A3F0900104E024FFFF900174
:101A4B0003E034FFFEC3900108E09FEE6480F89042
:101A5B000107E06480984003021B68E4900109F0E1
:101A6B00A3F0900104E024FFFF900103E034FFFE9C
:101A7B00900107E0FCA3E0FDC3EF9DFFEE9CFEA3EE
:101A8B00E0FCA3E0FDC39FEE6480F8EC648098401B
:101A9B0003021B54ED2401FFE43CFEEF25E0FFEEB7
:101AAB00338F82F583120687FDACF090010AE02597
:101ABB00E0FF900109E0338F82F583120687D39DF7
:101ACB00E5F09C4070900109E0FCA3E0FD25E0FFF0
:101ADB00EC338F82F583120687FF900105E5F0F05A
:101AEB00A3EFF0ED2401FFE43CFEEF25E0FFEE3326
:101AFB008F82F583120687FD90010AE025E0FF90A7
:101B0B000109E0338F82F583E5F08DF01206DE904C
:101B1B000105E0FCA3E0FD90010AE02401FF900128
:101B2B0009E03400FEEF25E0FFEE338F82F583EC06
:101B3B008DF01206DE90010AE004F06003021A6DCC
:101B4B00900109E004F0021A6D900108E004F060C6
:0D1B5B0003021A42900107E004F0021A4252
:011B6800225A
:0E291A00EF1F70011E144E6004000080F322B7
:1028EC007D407C03ED1D70011C144C70F7EF1F70C4
:0628FC00011E144E70EAFB
:0129020022B2
:10279F0090FF037401F090FF02F090FF07F090FF9D
:1027AF0001F075B4817F507E0012291A90FE9B7440
:0327BF0041F022C4
:10286800E4FFFE75B50243B440E5B430E5FB53B46C
:0A287800DFAEB7AFB6E4F5B7F5B672
:012882002233
:10288300E4FFFE75B50743B440E5B430E5FB53B44C
:0A289300DFAEB7AFB6E4F5B7F5B657
:01289D002218
:10289E00E4FFFE75B50343B440E5B430E5FB53B435
:0A28AE00DFAEB7AFB6E4F5B7F5B63C
:0128B80022FD
:1028B900E4FFFE75B50143B440E5B430E5FB53B41C
:0A28C900DFAEB7AFB6E4F5B7F5B621
:0128D30022E2
:102674007F007E007D007C00122883E4EE8FF01240
:1026840006BF7F147E0012291AE4FFFEFDFC122807
:10269400689000F6E0FBA3E0FAA3E0F9EE8FF00205
:0226A40006BF6F
:1026A6007F007E007D007C001228B9E4EE8FF012D8
:1026B60006BF7F147E0012291AE4FFFEFDFC1228D5
:1026C6009E9000F6E0FBA3E0FAA3E0F9EE8FF0029D
:0226D60006BF3D
:101E6C000D0A3D3D3D3D3D3D3D3D3D3D3D3D3D3DF9
:101E7C003D3D3D3D3D3D3D3D3D3D3D3D3D3D3D3D86
:101E8C003D3D3D3D3D3D3D3D3D3D0D0A00706F7777
:101E9C006572206F6E20666C617368206761703AA2
:101EAC002564202074696D65723A2564200D0A0042
:101EBC003D3D3D3D3D3D3D3D3D3D3D3D3D3D3D3D46
:101ECC003D3D3D3D3D3D3D3D3D3D3D3D3D3D3D3D36
:101EDC003D3D3D3D3D3D3D3D0D0A003D3D3D3D3DC6
:101EEC003D3D3D3D3D3D3D3D666972737420696EDF
:101EFC00697420646174613D3D3D3D3D3D3D3D3D1A
:101F0C003D3D200D0A0030782530345820203078A3
:101F1C002530345820203078253034582020307823
:101F2C0025303458200D0A00666C61736820676197
:101F3C00703A2564202074696D65723A2564200D11
:021F4C000A0089
:0B187A0044016D2020050141017101B7
:06295D00900171E0FF2271
:06296300900171EFF0226B
:10280800D310AF01C3C0D075FDF075FC0F8EFA8FE1
:10281800F975FDD275FC2D75FDE175FC1ED0D092C1
:02282800AF22DD
:10272B00D310AF01C3C0D08FFB75FDF075FC0FAE9E
:10273B0004AF058EFA8FF975FDB475FC4B75FDE191
:08274B0075FC1ED0D092AF22F4
:0C23EB007B017A01796B7D027F047E3C4F
:1023F700D310AF01C3C0D09000F2EEF0A3EFF0A36B
:0B240700EDF0A3EBF0A3EAF0A3E9F076
:10241200E4A3F0C2AFF09000F4E0FF9000F8E0C354
:102422009F502C9000F5E0FBA3E475F001120671B9
:10243200A9F0FA1205AEFF9000F2E475F00112065F
:1024420071ADF0FC12272B9000F8E004F080C7D2A7
:01245200AFDA
:05245300D0D092AF2281
:040003008F828E83D7
:03000700E493FF80
:01000A0022D3
:1025C3009000F2EEF0A3EFF0A3EBF0A3EAF0A3E99F
:1025D300F0AF051DEF60289000F2E475F0011206DC
:1025E3007185F082F583E493FF9000F4E0FBA3E4AC
:1025F30075F001120671A9F0FAEF1205F480D222E8
:10264100E4FDFCED2400FFE4343CFE120003746D54
:102651002DF582E43401F583E0B507030C80037F97
:1026610000220DEDB404DCECC3940440037F01228D
:022671007F00E8
:012673002244
:101B6900E49000F1F090FE927404F0122641EF70B7
:101B7900079000F104F080597BFF7A1E796C1209F5
:101B8900187B017A01796B7D027F047E3C1225C3A3
:101B99007BFF7A1E799990016BE0FF900136E4F0A2
:101BA900A3EFF090016CE0FF900138E4F0A3EFF0AF
:101BB9001209187BFF7A1E79BC12091890016BE093
:101BC900D394095006A3E0940540069000F17401EE
:101BD900F09000F1E06401707A7BFF7A1E79E712D8
:101BE900091890016B7401F0A3F07F007E3C122864
:101BF90008FB7A01796D7D041223F71223EB7B012F
:101C09007A01796D7D047F007E3C1225C37BFF7AC2
:101C19001F791290016DE0FF900136E4F0A3EFF017
:101C290090016EE0FF900138E4F0A3EFF090016FAE
:101C3900E0FF90013AE4F0A3EFF0900170E0FF902B
:101C4900013CE4F0A3EFF01209187BFF7A1E79BC7E
:101C59001209187BFF7A1F793490016BE0FF90011C
:101C690036E4F0A3EFF090016CE0FF900138E4F066
:061C7900A3EFF0020918C0
:102753007F047E3C1228087B017A01796D7D047F1A
:10276300001223F71223EB7B017A01796B7D027F41
:06277300047E3C0225C3B8
:06188500C11241017D00CB
:1027020090FF1674C1F090FF157460F090FFA074F2
:1027120026F090FFA114F075CEFF75CD9875CC060A
:09272200759E02759810D2AC22DC
:0C293500C2AC8F993099FDC299D2AC223F
:06296900AE071229352221
:0300230002282A86
:10282A00C0E0C083C082E59830E00E90017DE59952
:10283A00F05398EFD2125398FED082D083D0E03270
:1027C2004C4F4E475F4B45590D0A0054454D5045FD
:1027D200525F4B45590D0A0054494D455F4B4559CF
:0327E2000D0A00DD
:10188B004101720042017300004101750142017672
:02189B0000004B
:1029030090FF107460F090FF00F090FF17F090FFBD
:072913001174C2F0D2A122F1
:1020EC00E49000F3F0A281339000F2F0900172E0E2
:1020FC0014602614604E14700302218F24036003B5
:10210C000221989000F2E0600302219D900173F08F
:10211C00A3F090017204F080789000F2E0706B9064
:10212C000174E004F07006900173E004F0C39001B8
:10213C0074E09403900173E09400403E900172743B
:10214C0002F080369000F2E0B40106A37404F08033
:10215C003B900174E004F07006900173E004F0C34E
:10216C00900174E094C8900173E09400400C9000CE
:10217C00F37405F09001727403F07F0A7E0012284C
:10218C00EC800E9000F2E0B401078000E490017244
:06219C00F09000F3E0FFEB
:0121A200221A
:102458001220ECBF050C7BFF7A2779C21209187F7E
:102468000122900175E0603030A00320A72A7F3256
:102478007E001228ECE4900175F020A00C7BFF7A16
:102488002779CD1209187F022220A7187BFF7A2707
:1024980079DA1209187F032230A00930A7069001C3
:1024A800757401F0308113D3900177E094019001A5
:0C24B80076E094004004E4F0A3F07F0004
:0124C40022F5
:04189D0041017E0087
:1028D4007E0090017EE0FD7C00120880E47B64FAB7
:0728E400F9F81207478FDF2E
:0128EB0022CA
:1027E50090FF1D74C2F090FF9C7435F0AC06AD07E8
:1027F5007E7A7F12120606EF1490017EF0F5DE75E3
:03280500DD97223A
:0D29280075BD17EF75F02BA490FEA0F022F6
:0429810043BD102220
:102579007365742074696D65207365636F6E643A61
:1025890025640D0A0065786368616E67655F686533
:1025990061745F76616C7565200D0A0074696D65FB
:1025A900207365636F6E643A2564200D0A007469AF
:0A25B9006D65206F6666200D0A00B4
:1018A1004201680000420166000041016A004101F5
:0718B1006500420163000025
:10284A00900166EEF0A3EFF0E4A3F0A3F07BFF7A29
:0E285A00257979900136EEF0A3EFF00209180F
:10260300900165E06401703590016375F001120675
:102613005BFED3E5F0940EEE940140217BFF7A2517
:10262300798E120918E4900165F0900163F0A3F02C
:0E26330090016BE0D3940190016A7402F022D2
:10237000E4900168F0A3F090016CE0FF7008900118
:1023800066F0A3F0804DEFB4010B9001667407F086
:10239000A304F0803EEFB4020C900166740EF0A32B
:1023A0007410F0802EEFB4030C900166741CF0A33F
:1023B0007420F0801EEFB4040C9001667438F0A312
:1023C0007440F0800EEFB4050A9001667470F0A3BB
:1023D0007480F07BFF7A2579A5900166E0FFA3E089
:0B23E000900136CFF0A3EFF0020918C7
:10000E00E490FE80F0F589758CF5758A9643A8020A
:04001E0043881022E1
:03000B0002224688
:10224600C0E0C0F0C083C082C0D075D000C000C05E
:1022560001C002C003C004C005C006C00712295D44
:10226600EF705D900169E004F07006900168E0048B
:10227600F0C3900169E094F4900168E09401404055
:10228600122603D3900167E09400900166E0940063
:102296004027A3E024FFF0900166E034FFF09001B0
:1022A6006CE060157F01122963900166E4F0A3F0EB
:1022B6007BFF7A2579B7120918900168E4F0A3F03C
:1022C600121F4ED007D006D005D004D003D002D0BE
:0E22D60001D000D0D0D082D083D0F0D0E03242
:1018B80042017B000041017A004101790041017831
:0118C800001F
:1026D80043D1E890FF62E04406F090FF61E04408CF
:1026E800F090FF60E04410F090FF6AE044F8F0C218
:0A26F80097C296C295C294C29322C5
:06296F00900179EFF02257
:09294B0090017B74CEF0A3F02290
:10277900900178E0FF700F90017B74CEF0A3F09088
:1027890001787401F022EFB4010B90017B74FFF022
:05279900E4900178F05E
:01279E002218
:0629750090017CEFF0224E
:06297B0090017BEFF02249
:0929540090017B74CCF0A3F02289
:101F4E00900179E0FF6006F4600302201C43D1E8A3
:101F5E0090017AE0B408004003022016901F71F839
:101F6E00282873021F89021F99021FAA021FBD0291
:101F7E001FD2021FE2021FF302200653D1EF1215E9
:101F8E00AF120D3090017A7401F022C292D29112EA
:101F9E0015B3120D3090017A7402F022C292C291E2
:101FAE00D2A31215B5120D3090017A7403F022C22D
:101FBE0092C291C2A3D2B41215B7120D3090017A0B
:101FCE007404F02243D1101215AF120D3090017A25
:101FDE007405F022C292D2911215B3120D309001F7
:101FEE007A7406F022C292C291D2A31215B5120DC6
:101FFE003090017A7407F022C292C291C2A3D2B479
:10200E001215B7120D308000E490017AF022900183
:09201E0079E0B4010375D16822D8
:050D300090017BE0FFD3
:100D3500EF12085A0D9C010DD4020E0C030D64042C
:100D45000E7C050EB4060EEB070F25080F5F090E86
:100D5500440A0FD8CC0FCDCE0F96FF00000FE290BE
:100D6500017AE0FF6003B40404C295C294EF640104
:100D75006004EFB40504D295D294EF64026004EFE9
:100D8500B40604D295D294EF64036008EF6407605B
:100D950003020FE2020FC890017AE0FF6003B4047A
:100DA50004C295C294EF64016004EFB40504D295C2
:100DB500C294EF64026004EFB40604D295C294EFC6
:100DC50064036008EF64076003020FE2020F2090DE
:100DD500017AE0FF6003B40404D295C294EF640184
:100DE5006004EFB40504D295C294EF64026004EF89
:100DF500B40604C295D294EF64036008EF640760FB
:100E050003020FE2020F5A90017AE0FF6003B40477
:100E150004D295C294EF64016004EFB40504D29541
:100E2500C294EF64026004EFB40604D295D294EF45
:100E350064036008EF64076003020FE2020F9190FC
:100E4500017AE0FF6003B40404C295C294EF640123
:100E55006004EFB40504D295D294EF64026004EF08
:100E6500B40604D295D294EF64036008EF6407607A
:100E750003020FE2020F2090017AE0FF6003B40441
:100E850004D295C294EF64016004EFB40504C295E1
:100E9500D294EF64026004EFB40604D295D294EFC5
:100EA50064036008EF64076003020FE2020F91908C
:100EB500017AE0FF6003B40404D295C294EF6401A3
:100EC5006004EFB40504C295D294EF64026004EFA8
:100ED500B40604D295D294EF64036008EF6407600A
:100EE50003020FE2806F90017AE0FF6003B404040F
:100EF500D295C294EF64016004EFB40504D295C2A3
:100F050094EF64026004EFB40604D295C294EF64D2
:100F1500036008EF64076003020FE2C295C29422E2
:100F250090017AE0FF6003B40404D295C294EF64A3
:100F3500016004EFB40504D295D294EF6402600415
:100F4500EFB40604D295D294EF64036008EF64070A
:100F55006003020FE2D295D2942290017AE0FF60FD
:100F650003B40404D295C294EF64016004EFB405A0
:100F750004D295D294EF64026004EFB40604D295CE
:100F8500D294EF64036005EF64077051D295C29463
:100F95002290017AE0FF6003B40404D295C294EF75
:100FA50064016004EFB40504C295D294EF64026055
:100FB50004EFB40604C295D294EF64036005EF64B0
:100FC50007701AC295D29422C297C296C295C2944E
:0E0FD500C29322D297D296D295D294D2932272
:0D15AF00D292C291C2A3C2B490017CE0FFB1
:1015BC00EF14605D14700302165B1470030216992D
:1015CC001470030216D314700302170D2405600364
:1015DC0002174A90017AE0FF6003B40406C297C276
:1015EC0096C293EF64016004EFB40506D297D296CD
:1015FC00D293EF64026004EFB40606C297D296C28F
:10160C0093EF64036046EF6407600302174A021706
:10161C004490017AE0FF6003B40406D297C296C2EC
:10162C0093EF64016004EFB40506D297D296D2937F
:10163C00EF64026004EFB40606C297C296C293EF41
:10164C0064036008EF6407600302174A02174490B2
:10165C00017AE0FF6003B40406C297C296C293EF0E
:10166C0064016004EFB40506D297D296D293EF646E
:10167C00026004EFB40606D297C296C293EF6403DD
:10168C006008EF6407600302174A02174490017A5E
:10169C00E0FF6003B40406C297C296D293EF6401D4
:1016AC006004EFB40506D297D296D293EF64026031
:1016BC0004EFB40606C297C296C293EF64036005AA
:1016CC00EF64077079807190017AE0FF6003B404D5
:1016DC0006C297D296C293EF64016004EFB405067C
:1016EC00D297D296D293EF64026004EFB40606C28E
:1016FC0097C296C293EF64036005EF6407703F8056
:10170C003790017AE0FF6003B40406C297C296C218
:10171C0093EF64016004EFB40506D297D296D2938E
:10172C00EF64026004EFB40606C297C296D293EF40
:0F173C0064036004EFB40706D297D296D29322CB
:100026000203E7E86480F8E933E83360110460F01E
:10003600ED33EC337009E8FCE9FDEAFEEBFF220440
:1000460060DED3EB9FEA9EE99DE8C2E78CF0C2F73B
:1000560095F0400CE8CCF8E9CDF9EACEFAEBCFFB07
:100066001203B285D0F05804700320D5B3E80470AB
:10007600075002B2D50203F192D5EC0460F7E4CC46
:10008600C0E0C398F8603B94186008400DD0E0FBD0
:100096000203C9E4FBFAC9FC8028E830E406E4C997
:1000A600FBE4CAFCE830E305E4C9CACBFCE8540724
:1000B6006010F8C3E913F9EA13FAEB13FBEC13FC2F
:1000C600D8F130F52FC3E49CFCEF9BFFEE9AFEEDD2
:1000D60099FDD0E0FBEF4E4D4C701222DB0302037C
:1000E600EEEC2CFCEF33FFEE33FEED33FDED30E7A7
:1000F600EB0203C9EF2BFFEE3AFEED39FDD0E0FB34
:1001060050130BBB00030203F1ED13FDEE13FEEFDC
:0801160013FFEC13FC0203C906
:10011E00EC4D6011E8497017ED33EC3304600DE4DB
:10012E00FCFFFEFD22E933E8330470F80203E71208
:10013E0003B258046009E4CC248150062850090209
:10014E0003F12840030203EEC0E0EB4A7044B9808D
:10015E0006D0E0FB0203DDEF4E701CBD8008EBFF06
:10016E00EAFEE9FD80EBE98DF0A4FEE5F002020760
:10017E00E9CDF9EAFEEBFFEF89F0A4FCE5F0CE89BC
:10018E00F0A42EFFE435F0CD89F0A42DFEE435F079
:10019E008067EF4E7005BD80D780C3EF8BF0A4ACA7
:1001AE00F0EE8BF0A42CFCE435F0F8EF8AF0A42CE2
:1001BE00E5F038FCE433CB8DF0A42CFCE5F03BF8F5
:1001CE00EE8AF0A42CFCE5F038F8E433CF89F0A4E5
:1001DE002CFCE5F038CF3400CE89F0A42FFFE5F0EB
:1001EE003EFEE433C98DF0A42EFEE5F039CD8AF043
:1001FE00A42FFFE5F03EFEE43DFD33D0E0FB5007BB
:10020E000BBB000F0203F1EC2CFCEF33FFEE33FEC1
:06021E00ED33FD0203C9EF
:100224000203F1EC5D046005E8590470030203E77E
:100234001203B2580460F6EC4860F2EC7004FDFE60
:10024400FF22C860DB2481C85009C39860025006AD
:100254000203EE9850CAF582E9294B4A7005AB8235
:100264000203DD75F0007C1A7880C3EF9BEE9AEDF3
:1002740099400DC3EF9BFFEE9AFEED99FDE842F025
:10028400DC23ACF0D0E0FFD0E0FED0E0FDAB822078
:10029400E7101BEB60BAEC2CFCEF33FFEE33FEED02
:1002A40033FD0203C9E803F830E705C0F075F00038
:1002B400EF2FFFEE33FEED33FD40B830E7C280AAE6
:1002C40074F8CC6480CCC86480C8F58204604FC3E1
:1002D400EB9FF5F0EA9E42F0E99D42F0E89C45F080
:1002E400603C501DE5825FFFE582D313CB5BCBF40A
:1002F4002B5582FB50280ABA002409B90020088033
:100304001DE5825BFBE582D313CF5FCFF4C3132FCC
:100314005582FF50090EBE00050DBD00010CC3EB54
:100324009FF5F0EA9E42F0E99D42F0E89C45F060BA
:0903340007CC4820E701B3EC22DC
:10033D0075F020800E75F010800575F0087D007E3B
:10034D00007F003392D530D5031207D9EC3340101E
:10035D00EF33FFEE33FEED33FDEC33FCD5F0ED2244
:0E036D00E5F0247EA2D513CC92E7CDCEFF2280
:10037B00EDD2E7CD33EC3392D524814006E4FFFE7A
:10038B00FDFC22FCE4CFCECDCC24E0501174FF80D9
:10039B00EDC3CC13CCCD13CDCE13CECF13CF047076
:0703AB00F030D5DE0207D996
:1008AD00E50D2436F582E43401F583E0050D229043
:1008BD000133301003900136E475F00112083A024D
:1008CD0005AE2009E97F2ED2098018EF540F249030
:1008DD00D43440D4FF300D0BEF24BFB41A005003B5
:1008ED002461FFE50E6002150E0511E5117002057C
:1008FD001030100E900133E475F00112083AEF023A
:10090D0005F40229697403D2108003E4C210F50DB9
:10091D00900133120851E4F50EF510F511E50E6056
:10092D00077F201208F080F5750FFFC20AC209C2B9
:10093D000BC20CC20EC20FC2111208BCFF700D30DB
:10094D0010057F00120901AF11AE1022B4255FC250
:10095D00D5C20D1208BCFF24D0B40A00501A75F090
:10096D000A780E30D50508B6FF0106C6A426F62076
:10097D00D5047002D20C80D924CFB41A00EF5004E4
:10098D00C2E5D20D020BF3D20A80C6D20980C0D2C5
:10099D000B80BCD2D580BAD20E80B47F201208F065
:1009AD00200B077401B50E0040F11208ADFF1208BF
:1009BD00F002092AD211D20F80951208ADFB120850
:1009CD00ADFA1208ADF94A4B700679F17A0C7BFF3E
:1009DD00200B2EE50E602A7E008E82758300120597
:1009ED00C760060EEE650F70F0C2D5EBC0E0EAC031
:1009FD00E0E9C0E0EE120C54D0E0F9D0E0FAD0E01E
:100A0D00FB1205AEFF60AAEBC0E0EAC0E0E9C0E072
:100A1D001208F0D0E02401F9D0E03400FAD0E0FB68
:100A2D00E50F0460DCD50FD98087D20B80A2120CA4
:100A3D003660F7E50F7001041203FCA90F600DE598
:100A4D000F600914F50F120CDEEF60F3EA30E702C8
:100A5D00F404C3995079EAF4250F0430E701E40456
:100A6D00F50F800D120C3660C1EA050F250F12032C
:100A7D00FCEA900162F030E701E4250F04D50F0484
:100A8D00200E0114120C54E4C0E0120CDE90016231
:100A9D00E0601320E70714F01208D8802204F0D08C
:100AAD00E014C0E07F001208D8E50F60071208CFF0
:100ABD00150F800B300E031208CFD0E002092AD09B
:100ACD00E00480C4120C36609EE50F041203FC9006
:100ADD000162EAF0E50F200E026001042404120CFD
:010AED0054B4
:100AEE0074FF04C0E0120CDE1208D8E50F200E02CF
:100AFE0060031208CFD0E0B50FE87F451208E290F0
:100B0E000162E07F2B30E7047F2DF404C0E0120871
:100B1E00F0D0E075F00A84C0F01208D9D0E01208C7
:100B2E00D902092A791080027908C20FC2118008F1
:100B3E00D2D5790A8004790AC2D5E50F047002F580
:100B4E000FE4FAFDFEFF1208ADFC7B08200A13121B
:100B5E0008ADFD7B1030090A1208ADFE1208ADFF7C
:100B6E007B20EC3382D592D55013C3E43009069F17
:100B7E00FFE49EFEE4200A039DFDE49CFCE4CBF81A
:100B8E00C20AEC700CCFCECDCCE824F8F870F3800E
:100B9E0017C3EF33FFEE33FEED33FDEC33FCEB33D7
:100BAE00FB994002FB0FD8E9EB300A05F8D0E0C400
:100BBE0048B20AC0E00AEC4D4E4F78207B0070C25E
:100BCE00EAB50F0040BCC0E0120C56D0F0D0E020C9
:100BDE000A04C4C0E0C4B20AC0F01208D9D0F0D5DD
:100BEE00F0EB02092A12085A09C7530B325809981A
:100BFE004C0994420B364F0B3E440B3E4909AD4314
:100C0E000B44550A71460AD1450A3B470D1150094E
:100C1E009C2D09A02E09C32B09A42309C1200CFA6F
:100C2E002A095C48000009BBE50FB4FF03750F06E7
:100C3E001208ADFC1208ADFD1208ADFE1208ADFF94
:100C4E0090015B020439790AA2D5200C14300E09EA
:100C5E00B910020404B9080104A2D5200F025001F4
:100C6E0004200B68920BB50E005034C0E07F20308C
:100C7E000C197F30A20B720F720E500F120CADC2F8
:100C8E000BC20FC20EC2117F30800F300E03E9C0AF
:100C9E00E01208F0300E03D0E0F9D0E0B50ECC3003
:100CAE000E177F30B9100C1208F07F58300D077FE9
:100CBE00788003B908031208F0300B057F2D020867
:100CCE00F07F202011F87F2B200FF322920B80CF84
:100CDE007F00B40700500B245BF582E43401F583EA
:100CEE00E0FF22286E756C6C2900D20A1208AD3016
:100CFE000AF8C20A780E30D50108F602095C2D50AA
:100D0E004349581208AD2403B405004001E4900D88
:100D1E000C931208E1743A1208E1D20C750E04021B
:020D2E000B3286
:1003B200E9D2E7C933E833F892D5EDD2E7CD33EC91
:0703C20033FC5002B2D5220A
:1003C900EC30E7100FBF000C0EBE00080DBD000495
:1003D9000BEB6014A2D5EB13FCED92E7FD2274FF41
:1003E900FCFDFEFF22E480F8A2D574FF13FC7D809A
:0303F900E480EFAE
:1003FC00F920E73624F950037907E4F42402FBE5ED
:10040C0082158270021583DBF6E024FB501BE96039
:10041C0014E4F0E582158270021583E004F0B40A4E
:0D042C0008E4F0D9EE7401F00A22C2D522D6
:10043900ED33EC3392D5FA602AB4FF33EDC2E77B92
:10044900FF60067A04795EE4227A04796720D5048C
:100459007A047962224E614E002B494E46002D499D
:100469004E4600E47A08F0A3DAFC7B00740722C048
:1004790083C082ECC0E0EDC0E0EEC0E0EFC0E0EA8E
:1004890075F010A4CAABF075F04DA42BFBE435F060
:10049900FCEA2410FAEB34C5FBEC34D9FCEDC2E7D5
:1004A900FF75F056A4F42411C5F0F434C58FF0A4F7
:1004B9002AE5F03BE43CF020E71412056ED0E0FF9A
:1004C900D0E0FED0E0FDD0E0FC1202278014F40455
:1004D90012056ED0E0FFD0E0FED0E0FDD0E0FC12C6
:1004E900011ED082D083E0FAEDD2E7CD33EC33247C
:1004F90082FBE4C3CF33CFCE33CECD33CD33DBF361
:100509007B0775F00A846004F0A31B0AE5F0F0A3E9
:100519008FF0740AA4FFACF08EF0740AA42CFEAC20
:10052900F050010C8DF0740AA42CFDE435F0F0A311
:05053900DBDE74072267
:10053E003F8000004120000042C80000447A0000C5
:10054E00461C400047C35000497424004B18968047
:10055E004CBEBC205A0E1BCA6753C21C749DC5AE3E
:10056E00FB60065407601C232312059CEB54386075
:10057E000912058812059712011EECF8EDF9EEFA34
:10058E00EFCB22EB12059780F1543803241C900513
:10059E003EFE93FC0EEE93FD0EEE930ECE93FF22D7
:1022F0000221A3E493A3F8E493A34003F68001F240
:1023000008DFF48029E493A3F85407240CC8C333EE
:10231000C4540F4420C8834004F456800146F6DFBD
:10232000E4800B010204081020408090174BE47EEB
:10233000019360BCA3FF543F30E509541FFEE493B2
:10234000A360010ECF54C025E060A840B8E493A379
:10235000FAE493A3F8E493A3C8C582C8CAC583CAA4
:10236000F0A3C8C582C8CAC583CADFE9DEE780BE5C
:0118C900001E
:1005AE00BB010689828A83E0225002E722BBFE024B
:0905BE00E32289828A83E493227E
:1005C700BB010CE58229F582E5833AF583E02250E9
:1005D70006E92582F8E622BBFE06E92582F8E22233
:0D05E700E58229F582E5833AF583E493224D
:1005F400BB010689828A83F0225002F722BBFE01E6
:02060400F322DF
:10060600BC000BBE0029EF8DF084FFADF022E4CCD8
:10061600F875F008EF2FFFEE33FEEC33FCEE9DECA1
:10062600984005FCEE9DFE0FD5F0E9E4CEFD22EDE7
:10063600F8F5F0EE8420D21CFEADF075F008EF2F31
:10064600FFED33FD4007985006D5F0F222C398FD22
:050656000FD5F0EA22BF
:10065B00C5F0F8A3E028F0C5F0F8E582158270022A
:06066B001583E038F022C7
:10067100A3F8E0C5F025F0F0E5821582700215833C
:06068100E0C838F0E82299
:10068700BB0110E58229F582E5833AF583E0F5F0B1
:10069700A3E0225009E92582F886F008E622BBFE8E
:1006A7000AE92582F8E2F5F008E222E5832AF583D4
:0806B700E993F5F0A3E9932299
:1006BF00BB010A89828A83F0E5F0A3F0225006F786
:0F06CF0009A7F01922BBFE06F3E5F009F3192283
:1006DE00F8BB0111E58229F582E5833AF583E8F04E
:1006EE00E5F0A3F0225009E92582C8F608A6F0220B
:0D06FE00BBFE09E92582C8F2E5F008F222F2
:10070B0075F008758200EF2FFFEE33FECD33CDCCA5
:10071B0033CCC58233C5829BED9AEC99E582984028
:10072B000CF582EE9BFEED9AFDEC99FC0FD5F0D605
:10073B00E4CEFBE4CDFAE4CCF9A88222B800C1B92F
:10074B000059BA002DEC8BF084CFCECDFCE5F0CB6D
:10075B00F97818EF2FFFEE33FEED33FDEC33FCEBA6
:10076B0033FB10D703994004EB99FB0FD8E5E4F961
:10077B00FA227818EF2FFFEE33FEED33FDEC33FC4E
:10078B00C933C910D7059BE99A4007EC9BFCE99A42
:10079B00F90FD8E0E4C9FAE4CCFB2275F010EF2F87
:1007AB00FFEE33FEED33FDCC33CCC833C810D70787
:1007BB009BEC9AE899400AED9BFDEC9AFCE899F8C2
:0E07CB000FD5F0DAE4CDFBE4CCFAE4C8F92255
:0E07D900C3E49FFFE49EFEE49DFDE49CFC2231
:1007E700EB9FF5F0EA9E42F0E99D42F0EC6480C889
:0607F70064809845F02229
:0C07FD00ECF0A3EDF0A3EEF0A3EFF0226F
:10080900A8828583F0D083D0821208201208201292
:100819000820120820E473E493A3C583C5F0C583B7
:10082900C8C582C8F0A3C583C5F0C583C8C582C839
:01083900229C
:10083A00F8E0FBA3A3E0F925F0F0E5821582700247
:07084A001583E0FA38F022EB
:09085100EBF0A3EAF0A3E9F022A8
:10085A00D083D082F8E4937012740193700DA3A32D
:10086A0093F8740193F5828883E473740293686041
:06087A00EFA3A3A380DF41
:10088000EC8EF0A4CCC5F0CCCDF8EFA4CEC5F02D05
:10089000FDE43CFCE8A42EC8C5F03DFDE43CFCEFC3
:0D08A000A4FFE5F028FEE43DFDE43CFC2251
:00000001FF
