:0300000002087083
:0C087000787FE4F6D8FD7581340208B7EB
:1008FC000D0A3D3D3D3D3D3D3D3D3D3D3D3D3D3D7F
:10090C003D3D3D3D3D3D3D3D3D3D3D3D3D3D3D3D0B
:10091C003D3D3D3D0D0A00736B753A4B2564200D32
:10092C000A00736F66742076657273696F6E3A2570
:10093C0073200D0A00312E30302E3030006761707C
:10094C00202564200D0A0074696D657220256420D1
:10095C000D0A003D3D3D3D3D3D3D3D3D3D3D3D3D5B
:10096C003D3D3D3D3D3D3D3D3D3D3D3D3D3D3D3DAB
:08097C003D3D3D3D3D0D0A002B
:060C1800011D00011E0099
:0A0CD200758E5190FE917401F0221E
:10059700120CD2120B5D120C56D2AF120C9C120722
:1005A700A17FC87E00120BAC7F02120CB9E490FE4B
:1005B70080F0F589758CF5758A9643A802438810F3
:1005C70043D1E890FF62E04406F090FF61E0440801
:1005D700F090FF60E04410F090FF6AE044F8F07B91
:1005E700FF7A0879FC1200707BFF7A097923750C72
:1005F7001F750DA8120070750CFF750D09750E415A
:100607007BFF7A09792E1200707BFF7A0979497589
:100617000C0085220D1200707BFF7A097953750C47
:100627000085230D1200707BFF7A09795F12007035
:10063700E51D60FCE4F51DE51EB408005071900649
:100647004CF828287302066402066C02067102063B
:100657007602067B02068702069202069F53D1EFB7
:10066700751E018015751E028019751E03801F7582
:100677001E04802743D110751E05D292C2918007B0
:10068700751E06C292D291C2A38009751E07C29237
:10069700C291D2A3C2B4800BE4F51EC292C291C22A
:1006A700A3D2B4D297D296D295D294D2938003E4B0
:0806B700F51E120CE6020637E5
:03000B00020CE202
:040CE200751D013249
:0E0CAB00EF1F70011E144E6004000080F32243
:100C72007DA07C01ED1D70011C144C70F7EF1F70FC
:060C8200011E144E70EA91
:010C88002249
:030CEA00020CAB4E
:100C5600E490FF03F090FF07F075B4817F14FE1255
:0C0C66000CAB75B50190FE9B7449F022A8
:100C8900E4FFFE43B440E5B430E5FB53B4DFAEB74F
:020C9900AFB6F4
:010C9B002236
:1009F900E4F532F531F530F52FFB120C89E4FCFDF5
:100A0900E5322FF532E5313EF531ED3530F530EC93
:100A1900352FF52F0BBB05E2AF32AE31AD30AC2F20
:100A2900E47B05FAF9F81204758F328E318D308C1A
:100A39002FE47FA07E0FFDFCAB32AA31A930A82F8D
:100A49001203EAE4FB7A10F9F81204758F328E3139
:040A59008D308C2F21
:010A5D002276
:1006BF000D0A3D3D3D3D3D3D3D3D3D3D3D3D3D3DBE
:1006CF003D3D3D3D3D3D3D3D3D3D3D3D3D3D3D3D4B
:1006DF003D3D3D3D3D3D3D3D3D3D0D0A00706F773C
:1006EF006572206F6E20666C617368206761703A67
:1006FF002564202074696D65723A2564200D0A0007
:10070F003D3D3D3D3D3D3D3D3D3D3D3D3D3D3D3D0A
:10071F003D3D3D3D3D3D3D3D3D3D3D3D3D3D3D3DFA
:10072F003D3D3D3D3D3D3D3D0D0A003D3D3D3D3D8A
:10073F003D3D3D3D3D3D3D3D666972737420696EA3
:10074F00697420646174613D3D3D3D3D3D3D3D3DDE
:10075F003D3D200D0A003078253034582020307868
:10076F0025303458202030782530345820203078E8
:10077F0025303458200D0A00666C6173682067615C
:10078F00703A2564202074696D65723A2564200DD6
:02079F000A004E
:090C1E0004242020050101280135
:030CED00AF28220B
:030CF0008F282228
:100BF600D310AF01C3C0D075FDF075FC0F8EFA8F10
:100C0600F975FDD275FC2D75FDE175FC1ED0D092EF
:020C1600AF220B
:100BD200D310AF01C3C0D08FFB75FDF075FC0F8C35
:100BE200FA8DF975FDB475FC4B75FDE175FC1ED0EF
:040BF200D092AF22CC
:0C0A5E007B007A0079227D027F047E3C40
:100A6A00D310AF01C3C0D08E098F0A8D0B8B0C8AAD
:030A7A000D890ED5
:100A7D00E4FEC2AFEEC3950B5024AB0C050EE50E94
:100A8D00AA0D7002050D14F912036AFF050AE50A95
:100A9D00AC097002050914FD120BD20E80D6D2AF2F
:050AAD00D0D092AF2241
:040003008F828E83D7
:03000700E493FF80
:01000A0022D3
:100AFA008E098F0A8B0B8A0C890DAF051DEF6026B4
:100B0A00050AE50AAE097002050914F5828E83E426
:100B1A0093FFAB0B050DE50DAA0C7002050C14F939
:070B2A00EF12038380D422C7
:100B3100E4FDFCED2400FFE4343CFE1200037424C8
:100B41002DF8E6B507030C80037F00220DBD04E3F9
:0B0B5100ECC3940440037F01227F00EE
:010B5C002276
:1007A100E4F50890FE927404F0120B31EF700280B0
:1007B100437BFF7A0679BF1200707B007A007922B1
:1007C1007D027F047E3C120AFA7BFF7A0679EC7582
:1007D1000C0085220D750E0085230F1200707BFF22
:1007E1007A07790F120070E522D394095006E523A8
:1007F10094054003750801E5086401705D7BFF7A8B
:1008010007793A1200707522017523037F007E3C3F
:10081100120BF67B007A0079247D04120A6A120A0F
:100821005E7B007A0079247D047F007E3C120AFA07
:100831007BFF7A077965750C0085240D750E00859F
:10084100250F7510008526117512008527131200DA
:10085100707BFF7A07790F1200707BFF7A07798727
:0F086100750C0085220D750E0085230F020070A7
:100B86007F047E3C120BF67B007A0079247D047F7D
:100B960000120A6A120A5E7B007A0079227D027FC1
:060BA600047E3C020AFA85
:100B5D0090FF1674C1F090FF157460F090FFA074B3
:100B6D0026F090FFA114F075CEFF75CDE675CC067D
:090B7D00759E02759810D2AC229D
:0C0CC600C2AC8F993099FDC299D2AC22CB
:060CDC00AE07120CC62257
:0E0C2700012900022A0000012C01022D00000C
:0F0C9C0090FF177460F090FF00F090FF01F022BE
:10098400E4F534A2A733F533E52914601714602E77
:1009940014605524037058E5337057F52AF52B7508
:1009A4002901804EE5337045052BE52B7002052A9D
:1009B400C39403E52A940040267529028021E53377
:1009C400B401057534048027052BE52B7002052A34
:1009D400C39478E52A940040067534057529037F8D
:1009E4000A7E00120C72800AE533B401058000E42B
:0409F400F529AF34FE
:0109F80022DC
:100AB200120984BF05037F0122E52C601C308003EC
:100AC2002081167F327E00120C72E4F52C20800306
:100AD2007F032220810C7F02223080063081037541
:100AE2002C0130A710D3E52E9401E52D940040058A
:070AF200E4F52DF52E7F0055
:010AF90022DA
:030C3500011F009C
:100C39007E00AD1F7C00120507E47B64FAF9F81207
:0C0C490004758F0B8E0A8D098C088FDF5C
:010C5500227C
:100BAC0090FF1D74C2F090FF9C7435F0AC06AD073D
:100BBC007E7A7F12120395EF14F51FF5DE7F0A1271
:060BCC000C3975DD9722D3
:0D0CB90075BD17EF75F02BA490FEA0F02282
:040CE60043BD1022D8
:10087C00020597E493A3F8E493A34003F68001F2F6
:10088C0008DFF48029E493A3F85407240CC8C3337D
:10089C00C4540F4420C8834004F456800146F6DF4C
:1008AC00E4800B0102040810204080900C18E47EB8
:1008BC00019360BCA3FF543F30E509541FFEE49341
:1008CC00A360010ECF54C025E060A840B8E493A308
:1008DC00FAE493A3F8E493A3C8C582C8CAC583CA33
:1008EC00F0A3C8C582C8CAC583CADFE9DEE780BEEB
:010C380000BB
:10036A00BB010689828A83E0225002E722BBFE0291
:09037A00E32289828A83E49322C4
:10038300BB010689828A83F0225002F722BBFE0159
:02039300F32253
:10039500BC000BBE0029EF8DF084FFADF022E4CC4C
:1003A500F875F008EF2FFFEE33FEEC33FCEE9DEC15
:1003B500984005FCEE9DFE0FD5F0E9E4CEFD22ED5B
:1003C500F8F5F0EE8420D21CFEADF075F008EF2FA5
:1003D500FFED33FD4007985006D5F0F222C398FD96
:0503E5000FD5F0EA2233
:1003EA00E88FF0A4CC8BF0A42CFCE98EF0A42CFCB2
:1003FA008AF0EDA42CFCEA8EF0A4CDA8F08BF0A430
:10040A002DCC3825F0FDE98FF0A42CCD35F0FCEB8E
:10041A008EF0A4FEA9F0EB8FF0A4CFC5F02ECD3953
:0F042A00FEE43CFCEAA42DCE35F0FDE43CFC22C0
:1004390075F008758200EF2FFFEE33FECD33CDCC7A
:1004490033CCC58233C5829BED9AEC99E5829840FD
:100459000CF582EE9BFEED9AFDEC99FC0FD5F0D6DA
:10046900E4CEFBE4CDFAE4CCF9A88222B800C1B904
:100479000059BA002DEC8BF084CFCECDFCE5F0CB42
:10048900F97818EF2FFFEE33FEED33FDEC33FCEB7B
:1004990033FB10D703994004EB99FB0FD8E5E4F936
:1004A900FA227818EF2FFFEE33FEED33FDEC33FC23
:1004B900C933C910D7059BE99A4007EC9BFCE99A17
:1004C900F90FD8E0E4C9FAE4CCFB2275F010EF2F5C
:1004D900FFEE33FEED33FDCC33CCC833C810D7075C
:1004E9009BEC9AE899400AED9BFDEC9AFCE899F897
:0E04F9000FD5F0DAE4CDFBE4CCFAE4C8F9222A
:10050700EC8EF0A4CCC5F0CCCDF8EFA4CEC5F02D81
:10051700FDE43CFCE8A42EC8C5F03DFDE43CFCEF3F
:0D052700A4FFE5F028FEE43DFDE43CFC22CD
:10000E00E518240CF8E60518227809300702780C5A
:10001E00E475F00112056102036A2000EB7F2ED217
:10002E00008018EF540F2490D43440D4FF30040BCA
:10003E00EF24BFB41A0050032461FFE519600215C6
:10004E0019051CE51C7002051B30070D7809E475B7
:10005E00F001120561EF020383020CDC7403D20778
:10006E008003E4C207F5188B098A0A890BE4F51997
:10007E00F51BF51CE51960077F2012004980F57508
:10008E001AFFC201C200C202C203C205C206C208E2
:10009E00120017FF700D3007057F0012005AAF1CBB
:1000AE00AE1B22B4255FC2D5C204120017FF24D0A6
:1000BE00B40A00501A75F00A781930D50508B6FF43
:1000CE000106C6A426F620D5047002D20380D924D8
:1000DE00CFB41A00EF5004C2E5D20402025AD20184
:1000EE0080C6D20080C0D20280BCD2D580BAD205E2
:1000FE0080B47F201200492002077401B519004018
:10010E00F112000EFF120049020082D208D20680C0
:10011E009512000EFB12000EFA12000EF94A4B70E9
:10012E0006792B7A037BFF20022EE519602A7E00CA
:10013E008E8275830012053460060EEE651A70F01D
:10014E00C2D5EBC0E0EAC0E0E9C0E0EE1202A1D0F9
:10015E00E0F9D0E0FAD0E0FB12036AFF60AAEBC030
:10016E00E0EAC0E0E9C0E0120049D0E02401F9D095
:10017E00E03400FAD0E0FBE51A0460DCD51AD98031
:10018E00877BFF7A02799DD202809C79108002795A
:10019E0008C206C2088008D2D5790A8004790AC23C
:1001AE00D5E51A047002F51AE4FAFDFEFF12000EF0
:1001BE00FC7B0820011312000EFD7B1030000A128A
:1001CE00000EFE12000EFF7B20EC3382D592D5502E
:1001DE0013C3E43000069FFFE49EFEE42001039D5E
:1001EE00FDE49CFCE4CBF8C201EC700CCFCECDCC80
:1001FE00E824F8F870F38017C3EF33FFEE33FEED0B
:10020E0033FDEC33FCEB33FB994002FB0FD8E9EBEB
:10021E00300105F8D0E0C448B201C0E00AEC4D4E02
:10022E004F78207B0070C2EAB51A0040BCC0E012C5
:10023E0002A3D0F0D0E0200104C4C0E0C4B201C0DB
:10024E00F0120032D0F0D5F0EB02008212057101EF
:10025E001F5301995800F04C00EC42019D4F01A52F
:0F026E004401A54901054301AB55018F46018F9E
:10027D0045018F47034B5000F42D00F82E011B2B29
:10028D0000FC2301192003342A00B4480000011397
:10029D003F3F3F00790AA2D5200314300509B9105C
:1002AD00020404B9080104A2D5200602500104205D
:1002BD0002689202B519005034C0E07F2030031956
:1002CD007F30A20272067205500F1202FAC202C2EC
:1002DD0006C205C2087F30800F300503E9C0E01269
:1002ED000049300503D0E0F9D0E0B519CC30051741
:1002FD007F30B9100C1200497F583004077F788089
:10030D0003B908031200493002057F2D0200497F11
:10031D00202008F87F2B2006F322920280CF286E32
:10032D00756C6C2900D20112000E3001F8C20178F3
:10033D001930D50108F60200B42D5043495812006A
:10034D000E2403B405004001E49003469312003AD5
:0D035D00743A12003AD20375190402019996
:10053400BB010CE58229F582E5833AF583E022507C
:1005440006E92582F8E622BBFE06E92582F8E222C6
:0D055400E58229F582E5833AF583E49322E0
:10056100FAE6FB0808E6F925F0F618E6CA3AF6229B
:10057100D083D082F8E4937012740193700DA3A319
:1005810093F8740193F5828883E47374029368602D
:06059100EFA3A3A380DF2D
:00000001FF
